S00C00004D61696E2E7372656393
S11300000C94F0000C940D010C940D010C940D0152
S11300100C940D010C940D010C940D010C940D0124
S11300200C940D010C940D010C940D010C94E00240
S11300300C940D010C940D010C940D010C940D0104
S11300400C940D010C940D010C9496040C94C404AE
S11300500C940D010C940D010C940D010C940D01E4
S11300600C940D010C940D01C5013302EA01330215
S113007033023302330233023302330233023302D4
S113008033023302330233023302330233023302C4
S113009033023302330233023302330233023302B4
S11300A033023302330233023302330233023302A4
S11300B03302A70133020C0214023302330271012A
S11300C033021B023302330233023302330233029C
S11300D033023302330233023302330290016E617E
S11300E06E00696E660000407A10F35A00A0724EEA
S11300F018090010A5D4E80000E87648170000E4C9
S11301000B54020000CA9A3B000000E1F505000010
S113011080969800000040420F000000A086010075
S11301200000102700000000E80300000000640045
S1130130000000000A0000000000010000000000B0
S11301402C76D888DC674F0823DFC1DFAE59E1B1D4
S1130150B796E5E3E453C63AE651997696E8E6C2E3
S11301608426EB898C9B62ED407C6FFCEFBC9C9FEA
S113017040F2BAA56FA5F490055A2AF75C936B6C0C
S1130180F9676DC11BFCE0E40D47FEF520E6B50000
S1130190D0ED902E0300943577050080841E08006E
S11301A000204E0A000000C80C333333330F986E1E
S11301B012831141EF8D2114893BE65516CFFEE6DB
S11301C0DB18D1844B381BF77C1D901DA4BBE424A1
S11301D0203284725E228100C9F124ECA1E53D271E
S11301E011241FBECFEFD8E0DEBFCDBF12E0A0E0E8
S11301F0B1E0E8E0F6E102C005900D92AE3CB10733
S1130200D9F724E0AEECB2E001C01D92A837B207E2
S1130210E1F70E9463040C94020B0C9400001F93FA
S1130220CF93DF93CDB7DEB728970FB6F894DEBF30
S11302300FBECDBF162F4AE0BE016F5F7F4F0E94F5
S11302402B0ACE0101960E943505112321F081EC81
S113025092E00E94350528960FB6F894DEBF0FBED3
S1130260CDBFDF91CF911F910895CF93DF93CDB789
S1130270DEB760970FB6F894DEBF0FBECDBF6DE357
S113028070E08CE393E00E940E0ABC016F5F7F4F25
S1130290CE0101960E94190ACE0101960E940D0911
S11302A0BC01990F880B990B60960FB6F894DEBFCA
S11302B00FBECDBFDF91CF910895CF92DF92EF9221
S11302C0FF92CF93DF93E0913C038E2F90E0FC01EB
S11302D0BB97EB33F10508F0C6C0EC5CFF4F0C9400
S11302E0C10880913D038D3341F40E943501EB0137
S11302F06F3F710509F078F402C0C0E0D0E08C2FA4
S11303000E94970380E091E00E94350561E0CE01F0
S11303100E940F01BEC089E091E00E943505B9C07A
S113032080913D038D3341F40E943501EB01653624
S1130330710508F0AEC002C0C0E0D0E086E291E0F2
S11303400E94350561E0CE010E940F01A2C0809198
S11303503D038D3309F09DC00E9435016B017C0182
S11303608FEFC816D10409F058F4C0926B0481E3EE
S113037091E00E94350561E0C6010E940F0189C029
S11303808DE391E00E94350584C080913D038D3357
S113039009F07FC00E9435019B01215031092936A3
S11303A0310598F4E9E6F4E02281620F6A3608F038
S11303B069E6628381E391E00E94350580916B04D4
S11303C061E090E00E940F0164C08AE591E00E9420
S11303D035055FC080913D038D3309F05AC00E94FA
S11303E0350140916B04242F30E02617370778F04D
S11303F0C9E6D4E0842F861B8A8381E391E00E94BE
S113040035058A8161E090E00E940F0142C089E7CE
S113041091E00E9435053DC081E0809375048BE92D
S113042091E00E94350535C01092750481EA91E08F
S11304300E9435052EC080913D038D3351F50E94F5
S113044035016536710550F4E9E6F4E02281238331
S1130450658787EA91E00E9435051BC08CEB91E02B
S11304600E94350516C08CED91E00E943505CCE361
S1130470D3E088810E9420058EEE91E00E9435052C
S1130480888160E090E00E940F0181EF91E00E947A
S1130490350510920404DF91CF91FF90EF90DF9027
S11304A0CF900895CF930E9407059C0122273B71AA
S11304B0232B09F043C0E0913B03F0E0E45CFC4FE4
S11304C08083E0913B03F0E0E45CFC4F80818A3060
S11304D041F0E0913B03F0E0E45CFC4F80818D301F
S11304E041F584EF91E00E94350580913B03882318
S11304F069F0C0E0EC2FF0E0E45CFC4F80810E94E6
S11305002005CF5F80913B03C817A0F380E092E001
S11305100E94350581E0809304040E945D011092DD
S11305203B0384E6ECE3F3E0DF011D928A95E9F7EF
S113053005C080913B038F5F80933B03CF91089567
S1130540249A539A219A559A0895E1E8F0E080811B
S113055088608083808185608083EFE6F0E080811D
S1130560826080838BE990E0909389008093880077
S1130570109285001092840078940895ECE7F0E0DE
S1130580808180648083EAE7F0E0808187608083F3
S11305908081806880830895ECE7F0E09081907F0B
S11305A08F70892B8083EAE7F0E080818064808308
S11305B0808186FDFDCF8091780090917900089527
S11305C01F920F920FB60F9211242F933F934F93C4
S11305D05F936F937F938F939F93AF93BF93EF93A7
S11305E0FF9380E00E94CC02909372048093710484
S11305F083E00E94CC029C012C553140ABEABAEA5C
S11306000E94C70896958795893C910528F0109219
S11306106E0410926D040EC08A36910528F49093EE
S11306206E0480936D0406C089E690E090936E0496
S113063080936D0481E08093D502FF91EF91BF9187
S1130640AF919F918F917F916F915F914F913F9166
S11306502F910F900FBE0F901F901895CF93DF939B
S113066083E092E00E943505C9E6D4E060E0888525
S113067099850E940F0189E092E00E9435058A81E4
S113068060E090E00E940F0180E192E00E94350555
S113069060E08C819D810E940F0187E192E00E94BD
S11306A0350560E08E819F810E940F018DE192E00B
S11306B00E943505898160E090E00E940F0183E289
S11306C092E00E9435058881811105C089E292E09B
S11306D00E94350504C08EE292E00E94350586E34F
S11306E092E00E94350580917704813029F48DE3EE
S11306F092E00E9435050DC0811105C086E492E0A8
S11307000E94350506C0823021F48CE492E00E94F8
S11307103505DF91CF910895811103C090E195B91A
S113072003C0813009F42C988093690408958F3FA5
S113073019F488E08BB90895811102C05B9808957B
S11307408093B40080936A040895CF93DF938091DB
S11307507604882361F180917704811128C0809107
S1130760CE02882399F0C9E6D4E08B818A83109263
S1130770CE0287E992E00E9435058D8561E090E024
S11307800E940F018D8581508D8709C010926B04E2
S113079081E08093CE0282EA92E00E943505809146
S11307A07604811104C08FEA92E00E943505DF913E
S11307B0CF910895CF93DF93E9E6F4E02085318566
S11307C0828593852817390740F080E00E949703BB
S11307D0E9E6F4E0148682E086878091750481302E
S11307E009F068C0E9E6F4E024813581828190E073
S11307F0A9014E5F5F4F8417950770F0EF01821BCC
S1130800930B9783868380E00E948C038FEF0E9472
S1130810970381E08E874BC02330310508F442C032
S1130820A9014250510948175907E0F1281B390B17
S11308303093700420936F0481E00E948C038091B4
S1130840D1029091D2028230910519F59BB180E2D8
S113085089278BB920916F04309170048091CF0265
S11308609091D0022817390720F48FEF0E94970344
S113087003C080E00E94970380916F0490917004FC
S11308809093D0028093CF021092D2021092D102A0
S113089005C001969093D2028093D10281E08093A7
S11308A0770405C080E00E949703109277040E94A9
S11308B0A50306C080E00E94970382E0809377043A
S11308C0DF91CF9108950E94A0020E94A5020E9488
S11308D0BE0287E690E00E94EE04789483EC92E0F6
S11308E00E943505E9E6F4E08EE591E0938782877E
S11308F0148682E382830E9452028091D502882367
S113090059F08091040481110E945D010E94DA0370
S11309100E942E031092D5028091D3029091D402AA
S113092001969093D4028093D302E5CF1F920F9245
S11309300FB60F9211242F938F939F93EF93FF93EE
S11309408091C0002091C6008871E091D802EF5FC9
S1130950EF739091D702E91739F0E093D802F0E0F1
S1130960E552FD4F208301C082E09091D602892B8D
S11309708093D602FF91EF919F918F912F910F90C9
S11309800FBE0F901F9018951F920F920FB60F92E3
S113099011248F939F93EF93FF939091DA028091A8
S11309A0D902981769F0E091D902EF5FEF71E093F3
S11309B0D902F0E0E55EFC4F80818093C60005C05B
S11309C0E1ECF0E080818F7D8083FF91EF919F9136
S11309D08F910F900FBE0F901F9018951092DA020E
S11309E01092D9021092D8021092D702992324F4BB
S11309F022E02093C0009F779093C5008093C400A9
S1130A0088E98093C10086E08093C20008959091A4
S1130A10D8028091D702981781F0E091D702EF5F56
S1130A20EF73E093D702F0E0E552FD4F808190919F
S1130A30D6021092D60290E0089580E091E00895E5
S1130A402091DA022F5F2F719091D9022917E1F3D7
S1130A50E22FF0E0E55EFC4F80832093DA02E1ECC4
S1130A60F0E08081806280830895CF93DF93EC016E
S1130A708881882331F021960E9420058991811173
S1130A80FBCFDF91CF910895A0E1B0E0EAE4F5E077
S1130A900C94D6087C011B016A01FC0117821682A2
S1130AA0838181FF44C39E012F5F3F4F3901F701CA
S1130AB09381F10193FD859193FF81911F01882317
S1130AC009F431C3853239F493FD859193FF819103
S1130AD01F01853239F4B70190E00E94580A56018B
S1130AE06501E5CF10E0512C912CFFE1F915D8F008
S1130AF08B3279F038F4803279F08332A1F4F92D15
S1130B00F0612EC08D3261F0803369F4292D2160AB
S1130B102DC0392D3260932E892D8460982E2AC0E1
S1130B20E92DE86015C097FC2DC020ED280F2A3070
S1130B3088F496FE06C03AE0139F200D1124122F6C
S1130B4019C08AE0589E200D1124522EE92DE0622E
S1130B509E2E10C08E3231F496FCE5C2F92DF0645D
S1130B609F2E08C08C3621F4292D2068922E02C0B5
S1130B70883641F4F10193FD859193FF81911F0122
S1130B808111B3CF9BEB980F933020F4992D906192
S1130B90805E07C09BE9980F933008F066C1992DD9
S1130BA09F7E96FF16E09F73992E853619F4906404
S1130BB0992E08C0863621F4392F3068932E02C04E
S1130BC01111115097FE07C01C3350F44424439470
S1130BD0410E27E00BC0183038F027E017E005C0BD
S1130BE027E09CE3492E02C0212F412C560184E0CA
S1130BF0A80EB11CF6016081718182819381042D5C
S1130C00A3010E942B096C01F981FC87F0FF02C04B
S1130C10F3FF06C091FC06C092FE06C000E205C0C8
S1130C200DE203C00BE201C000E08C858C7019F06A
S1130C3001115AC29BC297FE10C04C0CFC85F4FFF4
S1130C4004C08A81813309F44A94141474F528E0A9
S1130C50241578F588E0482E2CC096FC2AC0812FF4
S1130C6090E08C159D059CF03CEFC3163FEFD30636
S1130C7074F0892D8068982E0AC0E2E0F0E0EC0F51
S1130C80FD1FE10FF11D8081803319F41150111102
S1130C90F4CF97FE0EC044244394410E812F90E07C
S1130CA0C816D9062CF41C1904C04424439401C06A
S1130CB010E097FE06C01C141D0434F4C60101960E
S1130CC005C085E090E002C081E090E0011101964A
S1130CD0112331F0212F30E02F5F3F4F820F931FFC
S1130CE0252D30E08217930714F4581A01C0512CB3
S1130CF0892D897049F4552039F0B70180E290E0DC
S1130D000E94580A5A94F7CF002329F0B701802F84
S1130D1090E00E94580A93FC09C0552039F0B701AD
S1130D2080E390E00E94580A5A94F7CF97FE4CC093
S1130D304601D7FE02C0812C912CC601881999095D
S1130D40F301E80FF91FFE87ED8796012419310995
S1130D50388B2F87012F10E01195019511093FEF72
S1130D608316930629F4B7018EE290E00E94580A94
S1130D70C814D9044CF08F8598898815990524F4F2
S1130D80ED85FE85818101C080E3F1E08F1A910831
S1130D902D853E852F5F3F4F3E872D878016910618
S1130DA02CF0B70190E00E94580AD9CFC814D90496
S1130DB041F49A81963320F4953319F43C8534FF39
S1130DC081E3B70190E04EC08A81813319F09C859C
S1130DD09F7E9C87B70190E00E94580A111105C0BC
S1130DE094FC18C085E690E017C0B7018EE290E04D
S1130DF00E94580A1E5F82E001E0080FF301E80F29
S1130E00F11D8081B70190E00E94580A802F0113E0
S1130E10F3CFE6CF85E490E0B7010E94580AD7FCEF
S1130E2006C0C114D10441F4EC85E4FF05C0D1949B
S1130E30C194D1088DE201C08BE2B70190E00E9419
S1130E40580A80E32AE0C216D1042CF08F5FFAE03E
S1130E50CF1AD108F7CFB70190E00E94580AB70122
S1130E60C601C0960E94580A54C1833631F08337B4
S1130E7079F0833509F056C020C0560132E0A30E44
S1130E80B11CF6018081898301E010E0630112C086
S1130E905601F2E0AF0EB11CF601C080D18096FE7F
S1130EA003C0612F70E002C06FEF7FEFC6010E94A4
S1130EB0200A8C01F92DFF7714C0560122E0A20EFE
S1130EC0B11CF601C080D18096FE03C0612F70E092
S1130ED002C06FEF7FEFC6010E94030A8C01F92D57
S1130EE0F0689F2EF3FD1AC0852D90E008171907AE
S1130EF0A8F4B70180E290E00E94580A5A94F4CF13
S1130F00F60197FC859197FE81916F01B70190E0FE
S1130F100E94580A51105A940150110901151105E3
S1130F2079F7F7C0843611F0893661F5560197FEDA
S1130F3009C024E0A20EB11CF60160817181828196
S1130F4093810AC0F2E0AF0EB11CF6016081718199
S1130F50072E000C880B990BF92DFF769F2E97FF17
S1130F6009C090958095709561957F4F8F4F9F4FE5
S1130F70F0689F2E2AE030E0A3010E94940AC82E54
S1130F80C6183FC0092D853721F40F7E2AE030E0D2
S1130F901DC0097F8F3691F018F4883559F0C3C00D
S1130FA0803719F0883711F0BEC0006104FF09C012
S1130FB0046007C094FE08C0066006C028E030E064
S1130FC005C020E130E002C020E132E0560107FF15
S1130FD009C084E0A80EB11CF60160817181828190
S1130FE0938108C0F2E0AF0EB11CF60160817181FB
S1130FF080E090E0A3010E94940AC82EC6180F77DF
S1131000902E96FE0BC0092D0E7FC11650F494FE4F
S11310100AC092FC08C0092D0E7E05C0DC2C092DE7
S113102003C0DC2C01C0D12E04FF0DC0FE01EC0D69
S1131030F11D8081803311F4097E09C002FF06C0CE
S1131040D394D39404C0802F867809F0D39403FDFD
S113105011C000FF06C01C2DD51480F4150D1D19F8
S11310600DC0D51458F4B70180E290E00E94580AEC
S1131070D394F7CFD51410F45D1801C0512C04FF9C
S113108010C0B70180E390E00E94580A02FF17C025
S113109001FD03C088E790E002C088E590E0B70155
S11310A00CC0802F867859F001FF02C08BE201C08A
S11310B080E207FD8DE2B70190E00E94580AC11654
S11310C038F4B70180E390E00E94580A1150F7CF3A
S11310D0CA94F301EC0DF11D8081B70190E00E94E8
S11310E0580AC110F5CF15C0F4E0F51560F584E099
S11310F0581A93FE1FC0011127C02C8523FF2AC054
S11311000EED10E0392D3071932EF8018491811188
S113111024C0552009F4E4CCB70180E290E00E9499
S1131120580A5A94F6CFF7018681978126C08FEF2B
S11311309FEF23C0B70180E290E00E94580A5A94BE
S11311405110F8CFD8CF512CB701802F90E00E94D6
S1131150580AD3CF02EE10E0D5CF91108052B701D8
S113116090E00E94580A0F5F1F4FCFCF23E0251550
S113117010F483E0BDCF512CC0CF6096E2E10C9413
S1131180F208EE0FFF1F0590F491E02D0994A29F41
S1131190B001B39FC001A39F700D811D1124911D47
S11311A0B29F700D811D1124911D08952F923F92BD
S11311B04F925F926F927F928F929F92AF92BF9263
S11311C0CF92DF92EF92FF920F931F93CF93DF930F
S11311D0CDB7DEB7CA1BDB0B0FB6F894DEBF0FBE6C
S11311E0CDBF09942A88398848885F846E847D84B9
S11311F08C849B84AA84B984C884DF80EE80FD80BB
S11312000C811B81AA81B981CE0FD11D0FB6F89430
S1131210DEBF0FBECDBFED010895FC0188279927DD
S1131220E89421912032E9F3293010F02E30C8F3EC
S11312302B3241F02D3239F4689404C00E94360AEE
S1131240820F911D219120532A30C0F31EF49095F2
S113125081959F4F0895283008F027E03327DA015D
S1131260990F311D87FD916000966105710539F470
S113127032602E5F3D9330E32A95E1F708959F3F56
S113128030F080387105610509F03C5F3C5F3D93A7
S1131290913008F08068911DDF93CF931F930F93D3
S11312A0FF92EF92192F987F9695E92F9695969530
S11312B0E90FFF27E05CFE4F99273327EE24FF2434
S11312C0A701E70105900894079428F4360FE71E58
S11312D0F81E491F511D660F771F881F991F06941A
S11312E0A1F70590079428F4E70EF81E491F561F2E
S11312F0C11D770F881F991F661F0694A1F70590DB
S1131300079428F4F80E491F561FC71FD11D880FD4
S1131310991F661F771F0694A1F70590079420F480
S1131320490F561FC71FD81F990F661F771F881FA5
S11313300694A9F784911095177041F0D695C79536
S113134057954795F794E7941A95C1F7E6EEF0E0C0
S113135068941590159135916591959105907FE26A
S11313607395E118F10A430B560BC90BD009C0F76A
S1131370E10CF11E431F561FC91FD01D7EF47033AC
S113138011F48A95E6CFE894015030F0080F0AF47E
S11313900027021708F4202F2395022F7A3328F010
S11313A079E37D932A95E9F710C07D932A9589F610
S11313B0069497956795379517951794E118F10A50
S11313C0430B560BC90BD00998F023957E91739566
S11313D07A3308F070E37C932013B8F77E91706140
S11313E07D9330F0839571E37D9370E32A95E1F763
S11313F01124EF90FF900F911F91CF91DF919927C6
S113140087FD90950895FC0105906150704001108E
S1131410D8F7809590958E0F9F1F0895FC018191B8
S1131420861721F08823D9F7992708953197CF019A
S11314300895FB01DC0101900D920020E1F708956D
S1131440FC016150704001900110D8F7809590958F
S11314508E0F9F1F0895BB274A3031F4992322F43D
S1131460BDE2909581959F4F0C943F0A7AE0979F37
S1131470902D879F802D910D11240895BB27FB018A
S11314805527AA27880F991FAA1FA41710F0A41B79
S113149083955051B9F7A05DAA3308F0A95DA193D3
S11314A0009779F7B111B1931192CB010C94F20A20
S11314B00F931F93CF93DF93FB01238121FD03C07F
S11314C08FEF9FEF2CC022FF16C0468157812481E5
S11314D035814217530744F4A081B1819D012F5FE8
S11314E03F4F318320838C93268137812F5F3F4F79
S11314F03783268314C08B01EC01FB010084F18542
S1131500E02D0995892BE1F6D80116968D919C91D1
S11315101797019617969C938E931697CE01DF9199
S1131520CF911F910F910895FA01AA27283051F104
S1131530203181F1E8946F936E7F6E5F7F4F8F4F00
S11315409F4FAF4FB1E03ED0B4E03CD0670F781F5F
S1131550891F9A1FA11D680F791F8A1F911DA11D44
S11315606A0F711D811D911DA11D20D009F468947D
S11315703F912AE0269F11243019305D3193DEF625
S1131580CF010895462F4770405D4193B3E00FD0DB
S1131590C9F7F6CF462F4F70405D4A3318F0495DC6
S11315A031FD4052419302D0A9F7EACFB4E0A695A9
S11315B09795879577956795BA95C9F700976105CB
S11315C0710508959B01AC010A2E06945795479521
S11315D037952795BA95C9F7620F731F841F951F16
S11315E0A01D0895DC01FC01672F71917723E1F7B9
S11315F0329704C07C916D9370836291AE17BF07DC
S10B1600C8F30895F894FFCF2C
S11316085370656564203D20005370656564206EE1
S11316186F7420696E2072616E6765206F66203072
S11316282D3235350A00652076616C7565203D20BC
S113163800536574706F696E74203D20005365749F
S1131648706F696E74206E6F7420696E2072616E9B
S1131658676520302D3235350A00536574706F691B
S11316686E74206E6F7420696E2072616E676520D7
S1131678746F6F206269670A00536574706F696ECE
S113168874206E6F7420696E2072616E67652C20F9
S1131698746F6F20736D616C6C0A005265736574A6
S11316A80053544F502100446F696E67206175746C
S11316B86F206D6F76656D656E740A004D756C7478
S11316C869706C79206D6F76656D656E74206E6FC8
S11316D87420696E2072616E67650A004E6F207609
S11316E8616C696420636F6D6D616E643A002028D3
S11316F800290A005265636569766564203D3C00EB
S11317083E0A00437572723D0020536574703D00B3
S113171820416E676C3D00204572723D0020537075
S1131728643D00204469723D0050554C4C005245BC
S11317384C454153450020535441543D00574F52A2
S11317484B494E470A00444F4E450A0053544F50E4
S11317580A006E302E76616C3D006E312E76616C17
S11317683D0074332E7478743D22574F524B494EC2
S113177847220074332E7478743D22444F4E452218
S11317880074332E7478743D2253544F5022006EE3
S1131798322E76616C3D0053657420746F20757029
S11317A83A0053657420746F20646F776E0A00588A
S11317B8585858585858585858585820444F4E450F
S11117C8210A00FFFFFF72657374FFFFFF002C
S9030000FC
