:100000000C94F0000C940D010C940D010C940D0156
:100010000C940D010C940D010C940D010C940D0128
:100020000C940D010C940D010C940D010C943703EC
:100030000C940D010C940D010C940D010C940D0108
:100040000C940D010C940D010C9413050C944105B6
:100050000C940D010C940D010C940D010C940D01E8
:100060000C940D010C940D01D1018A0203028A0245
:100070008A028A028A028A028A028A028A028A0220
:100080008A028A028A028A028A028A028A028A0210
:100090008A028A028A028A028A0277028A028A0213
:1000A0008A028A028A028A028A028A028A028A02F0
:1000B0008A02A7018A0231023F028A0264027101A8
:1000C0008A0249028A028A028A028A028A028A0211
:1000D0008A028A028A028A028A028A0290016E6178
:1000E0006E00696E660000407A10F35A00A0724EEE
:1000F00018090010A5D4E80000E87648170000E4CD
:100100000B54020000CA9A3B000000E1F505000014
:1001100080969800000040420F000000A086010079
:100120000000102700000000E80300000000640049
:10013000000000000A0000000000010000000000B4
:100140002C76D888DC674F0823DFC1DFAE59E1B1D8
:10015000B796E5E3E453C63AE651997696E8E6C2E7
:100160008426EB898C9B62ED407C6FFCEFBC9C9FEE
:1001700040F2BAA56FA5F490055A2AF75C936B6C10
:10018000F9676DC11BFCE0E40D47FEF520E6B50004
:10019000D0ED902E0300943577050080841E080072
:1001A00000204E0A000000C80C333333330F986E22
:1001B00012831141EF8D2114893BE65516CFFEE6DF
:1001C000DB18D1844B381BF77C1D901DA4BBE424A5
:1001D000203284725E228100C9F124ECA1E53D2722
:1001E00011241FBECFEFD8E0DEBFCDBF13E0A0E0EB
:1001F000B1E0E2E0F7E102C005900D92A230B10754
:10020000D9F724E0A2E0B3E001C01D92AF3AB207F3
:10021000E1F70E94E7040C947F0B0C9400001F93FD
:10022000CF93DF93CDB7DEB728970FB6F894DEBF34
:100230000FBECDBF162F4AE0BE016F5F7F4F0E94F9
:10024000A80ACE0101960E94B205112321F082EF87
:1002500091E00E94B20528960FB6F894DEBF0FBE5B
:10026000CDBFDF91CF911F910895CF93DF93CDB78D
:10027000DEB760970FB6F894DEBF0FBECDBF6DE35B
:1002800070E080E793E00E948B0ABC016F5F7F4FB4
:10029000CE0101960E94960ACE0101960E948A091B
:1002A000BC01990F880B990B60960FB6F894DEBFCE
:1002B0000FBECDBFDF91CF910895CF92DF92EF9225
:1002C000FF92CF93DF93E09170038E2F90E0FC01BB
:1002D000BB97EB33F10508F01DC1EC5CFF4F0C94AC
:1002E0003E09809171038D3341F40E943501EB0189
:1002F0006F3F710509F078F402C0C0E0D0E08C2FA8
:100300000E94310480E091E00E94B20561E0CE01DC
:100310000E940F0115C189E091E00E94B20510C151
:10032000809171038D3341F40E943501EB016536F4
:10033000710508F005C102C0C0E0D0E086E291E09E
:100340000E94B20561E0CE010E940F01F9C08091C8
:1003500071038D3309F0F4C08091AD048111F0C0B8
:100360008091AE048111ECC00E9435016B017C01CB
:100370006F3F710509F080F4EDE9F4E0628383E0FA
:1003800086831286118681E391E00E94B20561E0C6
:10039000C6010E940F01D4C08DE391E00E94B20516
:1003A000CFC0809171038D3309F0CAC08091AD0434
:1003B0008111C6C08091AE048111C2C00E94350176
:1003C0009B012150310929363105C0F4EDE9F4E0F3
:1003D0002281620F6A3608F069E66283CDE9D4E0D3
:1003E00083E08E831A86198681E391E00E94B2052C
:1003F0008A8161E090E00E940F01A2C08AE591E04D
:100400000E94B2059DC0809171038D3309F098C0A0
:100410008091AD04811194C08091AE04811190C08F
:100420000E94350140919F04242F30E026173707A2
:1004300098F0CDE9D4E0842F861B8A8383E08E83F5
:100440001A86198681E391E00E94B2058A8161E0F3
:1004500090E00E940F0174C089E791E00E94B2050C
:100460006FC0EDE9F4E081E08787108A83E086833E
:10047000128611868BE991E00E94B20561C0EDE918
:10048000F4E0178683E0818B81EA91E00E94B20557
:1004900057C0809171038D3309F052C00E9435011D
:1004A0006536710560F4EDE9F4E022812383608B09
:1004B00083E0868387EA91E00E94B20541C08CEB1D
:1004C00091E00E94B2053CC080E00E9426048FEFBC
:1004D0000E9431048FEF99E628E18150904020403E
:1004E000E1F700C0000080E00E94310429C081E0F3
:1004F0000E9426048FEF0E9431048FEF99E628E1D5
:10050000815090402040E1F700C0000080E00E9450
:10051000310416C08CED91E00E94B205C0E7D3E033
:1005200088810E949D058EEE91E00E94B20588812F
:1005300060E090E00E940F0181EF91E00E94B2051F
:1005400010923804DF91CF91FF90EF90DF90CF9021
:100550000895CF930E9484059C0122273B71232B91
:1005600009F043C0E0916F03F0E0E059FC4F808355
:10057000E0916F03F0E0E059FC4F80818A3041F058
:10058000E0916F03F0E0E059FC4F80818D3041F540
:1005900084EF91E00E94B20580916F03882369F097
:1005A000C0E0EC2FF0E0E059FC4F80810E949D05F7
:1005B000CF5F80916F03C817A0F380E092E00E94A4
:1005C000B20581E0809338040E945D0110926F03B0
:1005D00084E6E0E7F3E0DF011D928A95E9F705C0C4
:1005E00080916F038F5F80936F03CF910895249A5A
:1005F000539A219A559A0895E1E8F0E08081886045
:100600008083808185608083EFE6F0E08081826076
:1006100080838BE990E0909389008093880010920A
:1006200085001092840078940895ECE7F0E08081D2
:1006300080648083EAE7F0E0808187608083808146
:10064000806880830895ECE7F0E09081907F8F7060
:10065000892B8083EAE7F0E0808180648083808159
:1006600086FDFDCF809178009091790008951F92CA
:100670000F920FB60F9211242F933F934F935F93D6
:100680006F937F938F939F93AF93BF93EF93FF935A
:1006900080E00E9423039093A9048093A80483E040
:1006A0000E9423039C012C553140ABEABAEA0E9418
:1006B000440996958795893C910528F01092A204EB
:1006C0001092A1040EC08A36910528F49093A204DA
:1006D0008093A10406C089E690E09093A2048093E1
:1006E000A104EDE9F4E0238534858585968582179C
:1006F000930750F48091050390910603019690931F
:1007000006038093050304C01092060310920503AC
:1007100080910503909106038639910559F4EDE91E
:10072000F4E0178684E0818B1282108A109206030F
:100730001092050381E080930903FF91EF91BF912F
:10074000AF919F918F917F916F915F914F913F9169
:100750002F910F900FBE0F901F901895CF93DF939E
:1007600083E092E00E94B205CDE9D4E060E08B85A1
:100770009C850E940F0189E092E00E94B2058A8167
:1007800060E090E00E940F0180E192E00E94B205DB
:1007900060E08C819D810E940F0187E192E00E94C0
:1007A000B20560E08F8198850E940F018DE192E093
:1007B0000E94B20560E089859A850E940F0183E25C
:1007C00092E00E94B205898160E090E00E940F01F2
:1007D00089E292E00E94B2058881811105C08FE212
:1007E00092E00E94B20504C084E392E00E94B20548
:1007F0008CE392E00E94B2058091AE04823081F0D9
:1008000028F4882391F0813031F01DC0833091F0BD
:100810008430A9F018C083E492E00E94B20513C0AE
:100820008FE492E00E94B2050EC08DE592E00E9436
:10083000B20509C083E692E00E94B20504C089E6D1
:1008400092E00E94B205DF91CF910895811103C01B
:1008500090E195B903C0813009F42C9880939D04F0
:1008600008958F3F31F488E08BB98FEF80939E0419
:100870000895811104C05B9810929E04089580939E
:10088000B40080939E0408958091AD048823F1F014
:100890009091AE0491111AC093E09093A3049091AB
:1008A0000203992349F0EDE9F4E0938192831092D9
:1008B00002038150808B0895EDE9F4E083818F502D
:1008C000828381E080930203128611860895CF937C
:1008D000DF938091AC04813009F073C0EDE9F4E05E
:1008E00044815581268130E0828190E0BA01620F17
:1008F000731F8617970770F0EF01841B950B908785
:10090000878380E00E9426048FEF0E94310481E0FB
:10091000898B54C02417350708F048C0BA01621B00
:10092000730B6817790708F441C0481B590B5093A3
:10093000A5044093A40481E00E942604809103034F
:10094000909104038230910541F59BB180E28927A3
:100950008BB9EDE9F4E027813085818592852817F0
:10096000390720F48FEF0E94310403C080E00E9419
:100970003104EDE9F4E08781908521853285821785
:10098000930710F0232B21F49093A7048093A604DF
:10099000109204031092030305C001969093040380
:1009A0008093030382E08093AE0408C080E00E943D
:1009B0003104EDE9F4E088E08683118A0E94440462
:1009C00003C080E00E943104DF91CF9108950E941E
:1009D000F7020E94FC020E94150387E690E00E9445
:1009E0006B057894EDE9F4E082E890E096878587DE
:1009F000178683E08683818B12820E94A9028091F0
:100A00000903882349F08091380481110E945D0117
:100A10000E946704109209030E94AE03109208031B
:100A200010920703EACF1F920F920FB60F92112474
:100A30002F938F939F93EF93FF938091C00020910A
:100A4000C6008871E0910C03EF5FEF7390910B0388
:100A5000E91739F0E0930C03F0E0E15FFC4F2083ED
:100A600001C082E090910A03892B80930A03FF91D1
:100A7000EF919F918F912F910F900FBE0F901F902C
:100A800018951F920F920FB60F9211248F939F9378
:100A9000EF93FF9390910E0380910D03981769F0E7
:100AA000E0910D03EF5FEF71E0930D03F0E0E15B88
:100AB000FC4F80818093C60005C0E1ECF0E08081AE
:100AC0008F7D8083FF91EF919F918F910F900FBE4B
:100AD0000F901F90189510920E0310920D03109214
:100AE0000C0310920B03992324F422E02093C000FE
:100AF0009F779093C5008093C40088E98093C100DC
:100B000086E08093C200089590910C0380910B03BE
:100B1000981781F0E0910B03EF5FEF73E0930B0305
:100B2000F0E0E15FFC4F808190910A0310920A038C
:100B300090E0089580E091E0089520910E032F5FEA
:100B40002F7190910D032917E1F3E22FF0E0E15BA3
:100B5000FC4F808320930E03E1ECF0E08081806203
:100B600080830895CF93DF93EC018881882331F04F
:100B700021960E949D0589918111FBCFDF91CF9134
:100B80000895A0E1B0E0E7ECF5E00C9453097C0196
:100B90001B016A01FC0117821682838181FF44C315
:100BA0009E012F5F3F4F3901F7019381F10193FDC2
:100BB000859193FF81911F01882309F431C3853208
:100BC00039F493FD859193FF81911F01853239F4AA
:100BD000B70190E00E94D50A56016501E5CF10E00B
:100BE000512C912CFFE1F915D8F08B3279F038F4C3
:100BF000803279F08332A1F4F92DF0612EC08D326C
:100C000061F0803369F4292D21602DC0392D3260C7
:100C1000932E892D8460982E2AC0E92DE86015C096
:100C200097FC2DC020ED280F2A3088F496FE06C0D0
:100C30003AE0139F200D1124122F19C08AE0589E0C
:100C4000200D1124522EE92DE0629E2E10C08E320E
:100C500031F496FCE5C2F92DF0649F2E08C08C3665
:100C600021F4292D2068922E02C0883641F4F1012A
:100C700093FD859193FF81911F018111B3CF9BEB70
:100C8000980F933020F4992D9061805E07C09BE906
:100C9000980F933008F066C1992D9F7E96FF16E05D
:100CA0009F73992E853619F49064992E08C0863664
:100CB00021F4392F3068932E02C01111115097FE84
:100CC00007C01C3350F444244394410E27E00BC06A
:100CD000183038F027E017E005C027E09CE3492EE4
:100CE00002C0212F412C560184E0A80EB11CF60150
:100CF0006081718182819381042DA3010E94A809E2
:100D00006C01F981FC87F0FF02C0F3FF06C091FC83
:100D100006C092FE06C000E205C00DE203C00BE271
:100D200001C000E08C858C7019F001115AC29BC281
:100D300097FE10C04C0CFC85F4FF04C08A818133FF
:100D400009F44A94141474F528E0241578F588E021
:100D5000482E2CC096FC2AC0812F90E08C159D0552
:100D60009CF03CEFC3163FEFD30674F0892D8068EA
:100D7000982E0AC0E2E0F0E0EC0FFD1FE10FF11D3C
:100D80008081803319F411501111F4CF97FE0EC0F9
:100D900044244394410E812F90E0C816D9062CF4C8
:100DA0001C1904C04424439401C010E097FE06C0FF
:100DB0001C141D0434F4C601019605C085E090E0C2
:100DC00002C081E090E001110196112331F0212F42
:100DD00030E02F5F3F4F820F931F252D30E08217A9
:100DE000930714F4581A01C0512C892D897049F4C5
:100DF000552039F0B70180E290E00E94D50A5A945C
:100E0000F7CF002329F0B701802F90E00E94D50A88
:100E100093FC09C0552039F0B70180E390E00E94AF
:100E2000D50A5A94F7CF97FE4CC04601D7FE02C0B0
:100E3000812C912CC60188199909F301E80FF91F3B
:100E4000FE87ED87960124193109388B2F87012FF2
:100E500010E01195019511093FEF8316930629F4CF
:100E6000B7018EE290E00E94D50AC814D9044CF074
:100E70008F8598898815990524F4ED85FE858181F3
:100E800001C080E3F1E08F1A91082D853E852F5F28
:100E90003F4F3E872D87801691062CF0B70190E0DA
:100EA0000E94D50AD9CFC814D90441F49A81963347
:100EB00020F4953319F43C8534FF81E3B70190E0C9
:100EC0004EC08A81813319F09C859F7E9C87B70133
:100ED00090E00E94D50A111105C094FC18C085E667
:100EE00090E017C0B7018EE290E00E94D50A1E5F25
:100EF00082E001E0080FF301E80FF11D8081B701E6
:100F000090E00E94D50A802F0113F3CFE6CF85E44D
:100F100090E0B7010E94D50AD7FC06C0C114D104E5
:100F200041F4EC85E4FF05C0D194C194D1088DE271
:100F300001C08BE2B70190E00E94D50A80E32AE06D
:100F4000C216D1042CF08F5FFAE0CF1AD108F7CF88
:100F5000B70190E00E94D50AB701C601C0960E9471
:100F6000D50A54C1833631F0833779F0833509F0DF
:100F700056C020C0560132E0A30EB11CF60180819C
:100F8000898301E010E0630112C05601F2E0AF0E68
:100F9000B11CF601C080D18096FE03C0612F70E0C5
:100FA00002C06FEF7FEFC6010E949D0A8C01F92DF0
:100FB000FF7714C0560122E0A20EB11CF601C080DA
:100FC000D18096FE03C0612F70E002C06FEF7FEF0B
:100FD000C6010E94800A8C01F92DF0689F2EF3FD56
:100FE0001AC0852D90E008171907A8F4B70180E210
:100FF00090E00E94D50A5A94F4CFF60197FC8591AF
:1010000097FE81916F01B70190E00E94D50A5110BF
:101010005A94015011090115110579F7F7C084366A
:1010200011F0893661F5560197FE09C024E0A20E41
:10103000B11CF60160817181828193810AC0F2E066
:10104000AF0EB11CF60160817181072E000C880B78
:10105000990BF92DFF769F2E97FF09C090958095EB
:10106000709561957F4F8F4F9F4FF0689F2E2AE0BC
:1010700030E0A3010E94110BC82EC6183FC0092DF5
:10108000853721F40F7E2AE030E01DC0097F8F36BE
:1010900091F018F4883559F0C3C0803719F08837BB
:1010A00011F0BEC0006104FF09C0046007C094FED7
:1010B00008C0066006C028E030E005C020E130E04E
:1010C00002C020E132E0560107FF09C084E0A80E0B
:1010D000B11CF601608171818281938108C0F2E0C8
:1010E000AF0EB11CF6016081718180E090E0A30138
:1010F0000E94110BC82EC6180F77902E96FE0BC0BB
:10110000092D0E7FC11650F494FE0AC092FC08C04F
:10111000092D0E7E05C0DC2C092D03C0DC2C01C07E
:10112000D12E04FF0DC0FE01EC0DF11D8081803336
:1011300011F4097E09C002FF06C0D394D39404C001
:10114000802F867809F0D39403FD11C000FF06C0FC
:101150001C2DD51480F4150D1D190DC0D51458F48F
:10116000B70180E290E00E94D50AD394F7CFD5145E
:1011700010F45D1801C0512C04FF10C0B70180E3CA
:1011800090E00E94D50A02FF17C001FD03C088E766
:1011900090E002C088E590E0B7010CC0802F86780F
:1011A00059F001FF02C08BE201C080E207FD8DE231
:1011B000B70190E00E94D50AC11638F4B70180E368
:1011C00090E00E94D50A1150F7CFCA94F301EC0DBC
:1011D000F11D8081B70190E00E94D50AC110F5CFC2
:1011E00015C0F4E0F51560F584E0581A93FE1FC0B1
:1011F000011127C02C8523FF2AC00EED10E0392DE8
:101200003071932EF8018491811124C0552009F486
:10121000E4CCB70180E290E00E94D50A5A94F6CF60
:10122000F7018681978126C08FEF9FEF23C0B7011A
:1012300080E290E00E94D50A5A945110F8CFD8CF9E
:10124000512CB701802F90E00E94D50AD3CF02EE37
:1012500010E0D5CF91108052B70190E00E94D50ADE
:101260000F5F1F4FCFCF23E0251510F483E0BDCFD4
:10127000512CC0CF6096E2E10C946F09EE0FFF1F76
:101280000590F491E02D0994A29FB001B39FC00195
:10129000A39F700D811D1124911DB29F700D811DA2
:1012A0001124911D08952F923F924F925F926F9259
:1012B0007F928F929F92AF92BF92CF92DF92EF92E6
:1012C000FF920F931F93CF93DF93CDB7DEB7CA1B67
:1012D000DB0B0FB6F894DEBF0FBECDBF09942A8892
:1012E000398848885F846E847D848C849B84AA843A
:1012F000B984C884DF80EE80FD800C811B81AA81C7
:10130000B981CE0FD11D0FB6F894DEBF0FBECDBF91
:10131000ED010895FC0188279927E8942191203256
:10132000E9F3293010F02E30C8F32B3241F02D3282
:1013300039F4689404C00E94B30A820F911D219170
:1013400020532A30C0F31EF4909581959F4F089545
:10135000283008F027E03327DA01990F311D87FD87
:10136000916000966105710539F432602E5F3D93FE
:1013700030E32A95E1F708959F3F30F080387105FA
:10138000610509F03C5F3C5F3D93913008F0806857
:10139000911DDF93CF931F930F93FF92EF92192F1D
:1013A000987F9695E92F96959695E90FFF27E05C33
:1013B000FE4F99273327EE24FF24A701E70105906C
:1013C0000894079428F4360FE71EF81E491F511D94
:1013D000660F771F881F991F0694A1F70590079441
:1013E00028F4E70EF81E491F561FC11D770F881FEE
:1013F000991F661F0694A1F70590079428F4F80E2C
:10140000491F561FC71FD11D880F991F661F771FC1
:101410000694A1F70590079420F4490F561FC71FA3
:10142000D81F990F661F771F881F0694A9F784910C
:101430001095177041F0D695C79557954795F79435
:10144000E7941A95C1F7E6EEF0E0689415901591CF
:1014500035916591959105907FE27395E118F10AB8
:10146000430B560BC90BD009C0F7E10CF11E431F0B
:10147000561FC91FD01D7EF4703311F48A95E6CF34
:10148000E894015030F0080F0AF40027021708F41E
:10149000202F2395022F7A3328F079E37D932A9524
:1014A000E9F710C07D932A9589F60694979567957C
:1014B000379517951794E118F10A430B560BC90B92
:1014C000D00998F023957E9173957A3308F070E3F4
:1014D0007C932013B8F77E9170617D9330F08395F3
:1014E00071E37D9370E32A95E1F71124EF90FF906B
:1014F0000F911F91CF91DF91992787FD90950895C6
:10150000FC010590615070400110D8F780959095CE
:101510008E0F9F1F0895FC018191861721F088236B
:10152000D9F7992708953197CF010895FB01DC0180
:1015300001900D920020E1F70895FC016150704088
:1015400001900110D8F7809590958E0F9F1F0895F8
:10155000BB274A3031F4992322F4BDE2909581955E
:101560009F4F0C94BC0A7AE0979F902D879F802D07
:10157000910D11240895BB27FB015527AA27880F39
:10158000991FAA1FA41710F0A41B83955051B9F7F7
:10159000A05DAA3308F0A95DA193009779F7B11176
:1015A000B1931192CB010C946F0B0F931F93CF93B8
:1015B000DF93FB01238121FD03C08FEF9FEF2CC040
:1015C00022FF16C046815781248135814217530777
:1015D00044F4A081B1819D012F5F3F4F318320836F
:1015E0008C93268137812F5F3F4F3783268314C02A
:1015F0008B01EC01FB010084F185E02D0995892B1D
:10160000E1F6D80116968D919C9117970196179641
:101610009C938E931697CE01DF91CF911F910F91DE
:101620000895FA01AA27283051F1203181F1E89478
:101630006F936E7F6E5F7F4F8F4F9F4FAF4FB1E0C5
:101640003ED0B4E03CD0670F781F891F9A1FA11DC0
:10165000680F791F8A1F911DA11D6A0F711D811DC1
:10166000911DA11D20D009F468943F912AE0269F86
:1016700011243019305D3193DEF6CF010895462FE5
:101680004770405D4193B3E00FD0C9F7F6CF462FC6
:101690004F70405D4A3318F0495D31FD405241932F
:1016A00002D0A9F7EACFB4E0A695979587957795EC
:1016B0006795BA95C9F700976105710508959B0173
:1016C000AC010A2E06945795479537952795BA95FC
:1016D000C9F7620F731F841F951FA01D0895DC01B9
:1016E000FC01672F71917723E1F7329704C07C9159
:1016F0006D9370836291AE17BF07C8F30895F89495
:02170000FFCF19
:101702005370656564203D20005370656564206EEA
:101712006F7420696E2072616E6765206F6620307B
:101722002D3235350A00652076616C7565203D20C5
:1017320000536574706F696E74203D2000536574A8
:10174200706F696E74206E6F7420696E2072616EA4
:10175200676520302D3235350A00536574706F6924
:101762006E74206E6F7420696E2072616E676520E0
:10177200746F6F206269670A00536574706F696ED7
:1017820074206E6F7420696E2072616E67652C2002
:10179200746F6F20736D616C6C0A005265736574AF
:1017A2000053544F502100446F696E672061757475
:1017B2006F206D6F76656D656E740A004D756C7481
:1017C20069706C79206D6F76656D656E74206E6FD1
:1017D2007420696E2072616E67650A004E6F207612
:1017E200616C696420636F6D6D616E643A002028DC
:1017F20000290A005265636569766564203D3C00F4
:101802003E0A00437572723D0020536574703D00BC
:1018120020416E676C3D00204572723D00206F6C66
:10182200643D00205370643D00204469723D0050C5
:10183200554C4C0052454C454153450020535441B0
:10184200543D00574F524B494E472055500A0057BE
:101852004F524B494E4720444F574E0A00444F4E79
:10186200450A0053544F500A0043555252204F56D6
:10187200460A006E302E76616C3D00FFFFFF006E5F
:10188200312E76616C3D0074332E7478743D22548F
:1018920052454B2E2E220074332E706963633D3005
:1018A2000074332E7478743D224F4E545350414E7F
:1018B2002E2E220074332E7478743D224B4C4141FB
:1018C20052220074332E706963633D310074332EEB
:1018D2007478743D2253544F502C20524553455432
:1018E200220074332E706963633D320074332E74A8
:1018F20078743D2253544F502C204B52414348544C
:021902002200C1
:00000001FF
