:100000000C94F0000C940D010C940D010C940D0156
:100010000C940D010C940D010C940D010C940D0128
:100020000C940D010C940D010C940D010C94EC0238
:100030000C940D010C940D010C940D010C940D0108
:100040000C940D010C940D010C948D040C94BB04C4
:100050000C940D010C940D010C940D010C940D01E8
:100060000C940D010C940D01C5013202EA0132021B
:1000700032023202320232023202320232023202E0
:1000800032023202320232023202320232023202D0
:1000900032023202320232023202320232023202C0
:1000A00032023202320232023202320232023202B0
:1000B0003202A70132020C02140232023202710132
:1000C00032021B02320232023202320232023202A7
:1000D00032023202320232023202320290016E6188
:1000E0006E00696E660000407A10F35A00A0724EEE
:1000F00018090010A5D4E80000E87648170000E4CD
:100100000B54020000CA9A3B000000E1F505000014
:1001100080969800000040420F000000A086010079
:100120000000102700000000E80300000000640049
:10013000000000000A0000000000010000000000B4
:100140002C76D888DC674F0823DFC1DFAE59E1B1D8
:10015000B796E5E3E453C63AE651997696E8E6C2E7
:100160008426EB898C9B62ED407C6FFCEFBC9C9FEE
:1001700040F2BAA56FA5F490055A2AF75C936B6C10
:10018000F9676DC11BFCE0E40D47FEF520E6B50004
:10019000D0ED902E0300943577050080841E080072
:1001A00000204E0A000000C80C333333330F986E22
:1001B00012831141EF8D2114893BE65516CFFEE6DF
:1001C000DB18D1844B381BF77C1D901DA4BBE424A5
:1001D000203284725E228100C9F124ECA1E53D2722
:1001E00011241FBECFEFD8E0DEBFCDBF12E0A0E0EC
:1001F000B1E0E6EFF5E102C005900D92AA39B10732
:10020000D9F724E0AAE9B2E001C01D92A534B207F3
:10021000E1F70E9451040C94F90A0C9400001F931A
:10022000CF93DF93CDB7DEB728970FB6F894DEBF34
:100230000FBECDBF162F4AE0BE016F5F7F4F0E94F9
:10024000220ACE0101960E942C05112321F082EF93
:1002500091E00E942C0528960FB6F894DEBF0FBEE1
:10026000CDBFDF91CF911F910895CF93DF93CDB78D
:10027000DEB760970FB6F894DEBF0FBECDBF6DE35B
:1002800070E089E093E00E94050ABC016F5F7F4F38
:10029000CE0101960E94100ACE0101960E94040927
:1002A000BC01990F880B990B60960FB6F894DEBFCE
:1002B0000FBECDBFDF91CF910895CF92DF92EF9225
:1002C000FF92CF93DF93E09109038E2F90E0FC0122
:1002D000BB97EB33F10508F0C5C0EC5CFF4F0C9405
:1002E000B80880910A038D3341F40E943501EB0177
:1002F0006F3F710509F078F402C0C0E0D0E08C2FA8
:100300000E94890380E091E00E942C0561E0CE010B
:100310000E940F01BDC089E091E00E942C05B8C089
:1003200080910A038D3341F40E943501EB0165365B
:10033000710508F0ADC002C0C0E0D0E086E291E0F7
:100340000E942C0561E0CE010E940F01A1C08091A6
:100350000A038D3309F09CC00E9435016B017C01BA
:100360008FEFC816D10409F058F4C092380481E325
:1003700091E00E942C0561E0C6010E940F0188C037
:100380008DE391E00E942C0583C080910A038D3398
:1003900009F07EC00E9435019B01215031092936A8
:1003A000310598F4E6E3F4E02281620F6A3608F042
:1003B00069E6628381E391E00E942C058091380414
:1003C00061E090E00E940F0163C08AE591E00E9425
:1003D0002C055EC080910A038D3309F059C00E943C
:1003E000350140913804242F30E02617370778F084
:1003F000C6E3D4E0842F861B8A8381E391E00E94C8
:100400002C058A8161E090E00E940F0141C089E7DC
:1004100091E00E942C053CC081E0809342048BE96E
:1004200091E00E942C0534C01092420481EA91E0D0
:100430000E942C052DC080910A038D3399F40E94EF
:1004400035016536710550F4E6E3F4E0228123833B
:10045000658787EA91E00E942C0504C08CEB91E04F
:100460000E942C058CED91E00E942C05C9E0D3E0A0
:1004700088810E9417058EEE91E00E942C058881EC
:1004800060E090E00E940F0181EF91E00E942C0556
:100490001092D103DF91CF91FF90EF90DF90CF903A
:1004A0000895CF930E94FE049C0122273B71232BC9
:1004B00009F043C0E0910803F0E0E75FFC4F808360
:1004C000E0910803F0E0E75FFC4F80818A3041F063
:1004D000E0910803F0E0E75FFC4F80818D3041F54B
:1004E00084EF91E00E942C0580910803882369F035
:1004F000C0E0EC2FF0E0E75FFC4F80810E94170521
:10050000CF5F80910803C817A0F380E092E00E94BB
:100510002C0581E08093D1030E945D0110920803B5
:1005200084E6E9E0F3E0DF011D928A95E9F705C072
:10053000809108038F5F80930803CF910895249AD8
:10054000539A219A559A0895E0EBF0E080818062F9
:100550008083808183608083E1EBF0E08081826032
:100560008083E1E8F0E0808188608083808185601D
:100570008083EFE6F0E08081826080838BE990E009
:1005800090938900809388001092850010928400D7
:1005900078940895ECE7F0E0808180648083EAE756
:1005A000F0E0808187608083808180688083089507
:1005B000ECE7F0E09081907F8F70892B8083EAE7F1
:1005C000F0E0808180648083808186FDFDCF809112
:1005D00078009091790008951F920F920FB60F92B4
:1005E00011242F933F934F935F936F937F938F9338
:1005F0009F93AF93BF93EF93FF9380E00E94D80245
:1006000090933F0480933E0483E00E94D8029C01B3
:100610002C553140ABEABAEA0E94BE089695879500
:10062000893C910528F010923B0410923A040EC0C8
:100630008A36910528F490933B0480933A0406C0CF
:1006400089E690E090933B0480933A0481E08093A4
:10065000A202FF91EF91BF91AF919F918F917F91F6
:100660006F915F914F913F912F910F900FBE0F901F
:100670001F901895CF93DF9383E092E00E942C05A2
:10068000C6E3D4E060E0888599850E940F0189E087
:1006900092E00E942C058A8160E090E00E940F01A8
:1006A00080E192E00E942C0560E08C819D810E9497
:1006B0000F0187E192E00E942C0560E08E819F810E
:1006C0000E940F018DE192E00E942C05898160E07B
:1006D00090E00E940F0183E292E00E942C05888145
:1006E000811105C089E292E00E942C0504C08FE2CE
:1006F00092E00E942C05DF91CF910895811103C0F3
:1007000090E195B903C0813009F42C9880933604A8
:1007100008958093B400809337040895CF93DF93B6
:10072000E6E3F4E020853185828593852817390733
:1007300030F01092B4001182148682E08687809196
:100740004204813009F07BC0E6E3F4E02481358186
:10075000828190E0A9014E5F5F4F8417950778F082
:10076000EF01821B930B9783868380E00E947E03B8
:100770008FEF8093B400898381E08E8767C0233038
:10078000310508F452C0A9014250510948175907D0
:1007900008F44BC0281B390B30933D0420933C04D4
:1007A00081E00E947E0380919F02811109C08FEF3A
:1007B0008093B4008093370481E080939F0246C009
:1007C00080919D0290919E028230910541F59BB1EE
:1007D00080E289278BB920913C0430913D048091BF
:1007E0009B0290919C022817390730F48FEF809379
:1007F000B4008093370404C01092B4001092370400
:10080000E6E3F4E08681978190939C0280939B02BB
:1008100010929E0210929D0281E0868717C0019679
:1008200090939E0280939D0211C01092B400E6E363
:10083000F4E0118281E080939F02168607C0109237
:10084000B400E6E3F4E0118282E08687DF91CF9185
:100850000895CF93DF93809143048823F9F080912A
:10086000440481111BC080919A02882371F0C6E371
:10087000D4E08B818A8310929A0281E892E00E94F0
:100880002C058D8581508D8709C01092380481E038
:1008900080939A028CE892E00E942C05DF91CF9120
:1008A00008950E949F020E94A4020E94CA0287E645
:1008B00090E00E94E5047894E6E3F4E084EF91E0B0
:1008C00093878287148682E382830E9451028091FB
:1008D000D10381110E945D018091A202882321F041
:1008E0000E948E031092A2020E9429048091A0020D
:1008F0009091A102843F914031F40E943A031092FA
:10090000A1021092A0028091A0029091A1020196F2
:100910009093A1028093A002D8CF1F920F920FB69E
:100920000F9211242F938F939F93EF93FF938091B6
:10093000C0002091C6008871E091A502EF5FEF73BF
:100940009091A402E91739F0E093A502F0E0E85590
:10095000FD4F208301C082E09091A302892B8093F8
:10096000A302FF91EF919F918F912F910F900FBE56
:100970000F901F9018951F920F920FB60F9211248F
:100980008F939F93EF93FF939091A7028091A6027C
:10099000981769F0E091A602EF5FEF71E093A6026D
:1009A000F0E0E851FD4F80818093C60005C0E1EC86
:1009B000F0E080818F7D8083FF91EF919F918F91F7
:1009C0000F900FBE0F901F9018951092A7021092D3
:1009D000A6021092A5021092A402992324F422E008
:1009E0002093C0009F779093C5008093C40088E94E
:1009F0008093C10086E08093C20008959091A50283
:100A00008091A402981781F0E091A402EF5FEF7348
:100A1000E093A402F0E0E855FD4F80819091A3029D
:100A20001092A30290E0089580E091E00895209153
:100A3000A7022F5F2F719091A6022917E1F3E22FF1
:100A4000F0E0E851FD4F80832093A702E1ECF0E055
:100A50008081806280830895CF93DF93EC01888149
:100A6000882331F021960E94170589918111FBCFCF
:100A7000DF91CF910895A0E1B0E0E1E4F5E00C94BE
:100A8000CD087C011B016A01FC011782168283815B
:100A900081FF44C39E012F5F3F4F3901F7019381CE
:100AA000F10193FD859193FF81911F01882309F442
:100AB00031C3853239F493FD859193FF81911F01F4
:100AC000853239F4B70190E00E944F0A5601650162
:100AD000E5CF10E0512C912CFFE1F915D8F08B32C5
:100AE00079F038F4803279F08332A1F4F92DF06195
:100AF0002EC08D3261F0803369F4292D21602DC024
:100B0000392D3260932E892D8460982E2AC0E92DCC
:100B1000E86015C097FC2DC020ED280F2A3088F41E
:100B200096FE06C03AE0139F200D1124122F19C023
:100B30008AE0589E200D1124522EE92DE0629E2E4F
:100B400010C08E3231F496FCE5C2F92DF0649F2E70
:100B500008C08C3621F4292D2068922E02C08836D8
:100B600041F4F10193FD859193FF81911F01811162
:100B7000B3CF9BEB980F933020F4992D9061805E5A
:100B800007C09BE9980F933008F066C1992D9F7EAE
:100B900096FF16E09F73992E853619F49064992E6E
:100BA00008C0863621F4392F3068932E02C0111107
:100BB000115097FE07C01C3350F444244394410E57
:100BC00027E00BC0183038F027E017E005C027E019
:100BD0009CE3492E02C0212F412C560184E0A80E2F
:100BE000B11CF6016081718182819381042DA30182
:100BF0000E9422096C01F981FC87F0FF02C0F3FF1B
:100C000006C091FC06C092FE06C000E205C00DE2DF
:100C100003C00BE201C000E08C858C7019F001115B
:100C20005AC29BC297FE10C04C0CFC85F4FF04C056
:100C30008A81813309F44A94141474F528E0241548
:100C400078F588E0482E2CC096FC2AC0812F90E0D1
:100C50008C159D059CF03CEFC3163FEFD30674F056
:100C6000892D8068982E0AC0E2E0F0E0EC0FFD1FAD
:100C7000E10FF11D8081803319F411501111F4CF6F
:100C800097FE0EC044244394410E812F90E0C81675
:100C9000D9062CF41C1904C04424439401C010E06C
:100CA00097FE06C01C141D0434F4C601019605C04D
:100CB00085E090E002C081E090E0011101961123EF
:100CC00031F0212F30E02F5F3F4F820F931F252DF2
:100CD00030E08217930714F4581A01C0512C892D63
:100CE000897049F4552039F0B70180E290E00E9404
:100CF0004F0A5A94F7CF002329F0B701802F90E0D4
:100D00000E944F0A93FC09C0552039F0B70180E3D7
:100D100090E00E944F0A5A94F7CF97FE4CC04601CC
:100D2000D7FE02C0812C912CC60188199909F301C4
:100D3000E80FF91FFE87ED87960124193109388BDA
:100D40002F87012F10E01195019511093FEF8316B0
:100D5000930629F4B7018EE290E00E944F0AC8146E
:100D6000D9044CF08F8598898815990524F4ED8570
:100D7000FE85818101C080E3F1E08F1A91082D8505
:100D80003E852F5F3F4F3E872D87801691062CF0C2
:100D9000B70190E00E944F0AD9CFC814D90441F49A
:100DA0009A81963320F4953319F43C8534FF81E31E
:100DB000B70190E04EC08A81813319F09C859F7EF7
:100DC0009C87B70190E00E944F0A111105C094FC66
:100DD00018C085E690E017C0B7018EE290E00E944F
:100DE0004F0A1E5F82E001E0080FF301E80FF11DDA
:100DF0008081B70190E00E944F0A802F0113F3CF4A
:100E0000E6CF85E490E0B7010E944F0AD7FC06C008
:100E1000C114D10441F4EC85E4FF05C0D194C19420
:100E2000D1088DE201C08BE2B70190E00E944F0A29
:100E300080E32AE0C216D1042CF08F5FFAE0CF1ACB
:100E4000D108F7CFB70190E00E944F0AB701C60161
:100E5000C0960E944F0A54C1833631F0833779F02F
:100E6000833509F056C020C0560132E0A30EB11CF4
:100E7000F6018081898301E010E0630112C0560110
:100E8000F2E0AF0EB11CF601C080D18096FE03C027
:100E9000612F70E002C06FEF7FEFC6010E94170A5A
:100EA0008C01F92DFF7714C0560122E0A20EB11C6F
:100EB000F601C080D18096FE03C0612F70E002C0B1
:100EC0006FEF7FEFC6010E94FA098C01F92DF068DF
:100ED0009F2EF3FD1AC0852D90E008171907A8F47E
:100EE000B70180E290E00E944F0A5A94F4CFF601D5
:100EF00097FC859197FE81916F01B70190E00E9468
:100F00004F0A51105A94015011090115110579F732
:100F1000F7C0843611F0893661F5560197FE09C095
:100F200024E0A20EB11CF60160817181828193815F
:100F30000AC0F2E0AF0EB11CF60160817181072E8C
:100F4000000C880B990BF92DFF769F2E97FF09C097
:100F500090958095709561957F4F8F4F9F4FF0686A
:100F60009F2E2AE030E0A3010E948B0AC82EC618EB
:100F70003FC0092D853721F40F7E2AE030E01DC0E7
:100F8000097F8F3691F018F4883559F0C3C0803747
:100F900019F0883711F0BEC0006104FF09C0046079
:100FA00007C094FE08C0066006C028E030E005C017
:100FB00020E130E002C020E132E0560107FF09C025
:100FC00084E0A80EB11CF601608171818281938159
:100FD00008C0F2E0AF0EB11CF6016081718180E0C3
:100FE00090E0A3010E948B0AC82EC6180F77902E9E
:100FF00096FE0BC0092D0E7FC11650F494FE0AC058
:1010000092FC08C0092D0E7E05C0DC2C092D03C002
:10101000DC2C01C0D12E04FF0DC0FE01EC0DF11D32
:101020008081803311F4097E09C002FF06C0D39489
:10103000D39404C0802F867809F0D39403FD11C0A7
:1010400000FF06C01C2DD51480F4150D1D190DC010
:10105000D51458F4B70180E290E00E944F0AD3946F
:10106000F7CFD51410F45D1801C0512C04FF10C047
:10107000B70180E390E00E944F0A02FF17C001FD14
:1010800003C088E790E002C088E590E0B7010CC09B
:10109000802F867859F001FF02C08BE201C080E208
:1010A00007FD8DE2B70190E00E944F0AC11638F4A7
:1010B000B70180E390E00E944F0A1150F7CFCA9425
:1010C000F301EC0DF11D8081B70190E00E944F0A01
:1010D000C110F5CF15C0F4E0F51560F584E0581A9D
:1010E00093FE1FC0011127C02C8523FF2AC00EEDDF
:1010F00010E0392D3071932EF8018491811124C0B4
:10110000552009F4E4CCB70180E290E00E944F0A38
:101110005A94F6CFF7018681978126C08FEF9FEF13
:1011200023C0B70180E290E00E944F0A5A94511008
:10113000F8CFD8CF512CB701802F90E00E944F0AF2
:10114000D3CF02EE10E0D5CF91108052B70190E0DE
:101150000E944F0A0F5F1F4FCFCF23E0251510F4D9
:1011600083E0BDCF512CC0CF6096E2E10C94E9083A
:10117000EE0FFF1F0590F491E02D0994A29FB0019E
:10118000B39FC001A39F700D811D1124911DB29FBB
:10119000700D811D1124911D08952F923F924F9241
:1011A0005F926F927F928F929F92AF92BF92CF92F7
:1011B000DF92EF92FF920F931F93CF93DF93CDB700
:1011C000DEB7CA1BDB0B0FB6F894DEBF0FBECDBF78
:1011D00009942A88398848885F846E847D848C8449
:1011E0009B84AA84B984C884DF80EE80FD800C8152
:1011F0001B81AA81B981CE0FD11D0FB6F894DEBF35
:101200000FBECDBFED010895FC0188279927E89412
:1012100021912032E9F3293010F02E30C8F32B321F
:1012200041F02D3239F4689404C00E942D0A820FD7
:10123000911D219120532A30C0F31EF49095819581
:101240009F4F0895283008F027E03327DA01990FDF
:10125000311D87FD916000966105710539F432609A
:101260002E5F3D9330E32A95E1F708959F3F30F0DC
:1012700080387105610509F03C5F3C5F3D9391301A
:1012800008F08068911DDF93CF931F930F93FF9217
:10129000EF92192F987F9695E92F96959695E90FDD
:1012A000FF27E05CFE4F99273327EE24FF24A70198
:1012B000E70105900894079428F4360FE71EF81EFE
:1012C000491F511D660F771F881F991F0694A1F7AC
:1012D0000590079428F4E70EF81E491F561FC11DFC
:1012E000770F881F991F661F0694A1F70590079432
:1012F00028F4F80E491F561FC71FD11D880F991FCC
:10130000661F771F0694A1F70590079420F4490FF4
:10131000561FC71FD81F990F661F771F881F069477
:10132000A9F784911095177041F0D695C7955795F8
:101330004795F794E7941A95C1F7E6EEF0E06894C4
:101340001590159135916591959105907FE2739572
:10135000E118F10A430B560BC90BD009C0F7E10C99
:10136000F11E431F561FC91FD01D7EF4703311F4A8
:101370008A95E6CFE894015030F0080F0AF4002770
:10138000021708F4202F2395022F7A3328F079E3EF
:101390007D932A95E9F710C07D932A9589F60694E6
:1013A00097956795379517951794E118F10A430BB0
:1013B000560BC90BD00998F023957E9173957A331B
:1013C00008F070E37C932013B8F77E9170617D93F1
:1013D00030F0839571E37D9370E32A95E1F7112452
:1013E000EF90FF900F911F91CF91DF91992787FD8B
:1013F00090950895FC010590615070400110D8F758
:10140000809590958E0F9F1F0895FC0181918617FE
:1014100021F08823D9F7992708953197CF010895AE
:10142000FB01DC0101900D920020E1F70895FC0121
:101430006150704001900110D8F7809590958E0F03
:101440009F1F0895BB274A3031F4992322F4BDE24F
:10145000909581959F4F0C94360A7AE0979F902D36
:10146000879F802D910D11240895BB27FB015527DF
:10147000AA27880F991FAA1FA41710F0A41B8395F1
:101480005051B9F7A05DAA3308F0A95DA193009768
:1014900079F7B111B1931192CB010C94E90A0F9332
:1014A0001F93CF93DF93FB01238121FD03C08FEFB7
:1014B0009FEF2CC022FF16C04681578124813581C1
:1014C0004217530744F4A081B1819D012F5F3F4F24
:1014D000318320838C93268137812F5F3F4F378361
:1014E000268314C08B01EC01FB010084F185E02D03
:1014F0000995892BE1F6D80116968D919C91179745
:10150000019617969C938E931697CE01DF91CF91FB
:101510001F910F910895FA01AA27283051F1203127
:1015200081F1E8946F936E7F6E5F7F4F8F4F9F4F77
:10153000AF4FB1E03ED0B4E03CD0670F781F891FB9
:101540009A1FA11D680F791F8A1F911DA11D6A0F87
:10155000711D811D911DA11D20D009F468943F913A
:101560002AE0269F11243019305D3193DEF6CF0139
:101570000895462F4770405D4193B3E00FD0C9F7FF
:10158000F6CF462F4F70405D4A3318F0495D31FD6C
:101590004052419302D0A9F7EACFB4E0A6959795BF
:1015A000879577956795BA95C9F700976105710595
:1015B00008959B01AC010A2E0694579547953795DF
:1015C0002795BA95C9F7620F731F841F951FA01D39
:1015D0000895DC01FC01672F71917723E1F73297C1
:1015E00004C07C916D9370836291AE17BF07C8F3FE
:0615F0000895F894FFCFFE
:1015F6005370656564203D20005370656564206EF8
:101606006F7420696E2072616E6765206F66203088
:101616002D3235350A00652076616C7565203D20D2
:1016260000536574706F696E74203D2000536574B5
:10163600706F696E74206E6F7420696E2072616EB1
:10164600676520302D3235350A00536574706F6931
:101656006E74206E6F7420696E2072616E676520ED
:10166600746F6F206269670A00536574706F696EE4
:1016760074206E6F7420696E2072616E67652C200F
:10168600746F6F20736D616C6C0A005265736574BC
:101696000053544F502100446F696E672061757482
:1016A6006F206D6F76656D656E740A004D756C748E
:1016B60069706C79206D6F76656D656E74206E6FDE
:1016C6007420696E2072616E67650A004E6F20761F
:1016D600616C696420636F6D6D616E643A002028E9
:1016E60000290A005265636569766564203D3C0001
:1016F6003E0A00437572723D0020536574703D00CA
:1017060020416E676C3D00204572723D002053708B
:10171600643D00204469723D0050554C4C0A00520D
:10172600454C454153450A006E302E76616C3D00AE
:10173600FFFFFF006E312E76616C3D0074332E7410
:1017460078743D22574F524B494E47220074332E30
:101756007478743D22444F4E45220074332E7478BB
:10176600743D2253544F5022006E322E76616C3DEA
:101776000053657420746F2075700A0053657420D9
:0A178600746F20646F776E0A000094
:00000001FF
