S00C00004D61696E2E7372656393
S11300000C94F0000C940D010C940D010C940D0152
S11300100C940D010C940D010C940D010C940D0124
S11300200C940D010C940D010C940D010C94D5024B
S11300300C940D010C940D010C940D010C940D0104
S11300400C940D010C940D010C945A040C94880426
S11300500C940D010C940D010C940D010C940D01E4
S11300600C940D010C940D01C5011B02EA011B0245
S11300701B021B021B021B021B021B021B021B0294
S11300801B021B021B021B021B021B021B021B0284
S11300901B021B021B021B021B021B021B021B0274
S11300A01B021B021B021B021B021B021B021B0264
S11300B01B02A7011B020C0214021B021B0271018A
S11300C01B021B021B021B021B021B021B021B0244
S11300D01B021B021B021B021B021B0290016E610E
S11300E06E00696E660000407A10F35A00A0724EEA
S11300F018090010A5D4E80000E87648170000E4C9
S11301000B54020000CA9A3B000000E1F505000010
S113011080969800000040420F000000A086010075
S11301200000102700000000E80300000000640045
S1130130000000000A0000000000010000000000B0
S11301402C76D888DC674F0823DFC1DFAE59E1B1D4
S1130150B796E5E3E453C63AE651997696E8E6C2E3
S11301608426EB898C9B62ED407C6FFCEFBC9C9FEA
S113017040F2BAA56FA5F490055A2AF75C936B6C0C
S1130180F9676DC11BFCE0E40D47FEF520E6B50000
S1130190D0ED902E0300943577050080841E08006E
S11301A000204E0A000000C80C333333330F986E1E
S11301B012831141EF8D2114893BE65516CFFEE6DB
S11301C0DB18D1844B381BF77C1D901DA4BBE424A1
S11301D0203284725E228100C9F124ECA1E53D271E
S11301E011241FBECFEFD8E0DEBFCDBF12E0A0E0E8
S11301F0B1E0E0E9F5E102C005900D92AC34B1073D
S1130200D9F723E0ACE4B2E001C01D92A43FB207E9
S1130210E1F70E9420040C94C60A0C9400001F937A
S1130220CF93DF93CDB7DEB728970FB6F894DEBF30
S11302300FBECDBF162F4AE0BE016F5F7F4F0E94F5
S1130240EF09CE0101960E94F904112321F08DEBF0
S113025091E00E94F90428960FB6F894DEBF0FBE11
S1130260CDBFDF91CF911F910895CF93DF93CDB789
S1130270DEB760970FB6F894DEBF0FBECDBF6DE357
S113028070E08AEB92E00E94D209BC016F5F7F4F5D
S1130290CE0101960E94DD09CE0101960E94D1088B
S11302A0BC01990F880B990B60960FB6F894DEBFCA
S11302B00FBECDBFDF91CF910895CF92DF92EF9221
S11302C0FF92CF93DF93E091BA028E2F90E0FC016E
S11302D0BB97EB33F10508F0AEC0EC5CFF4F0C9418
S11302E085088091BB028D3341F40E943501EB01F6
S11302F06F3F710509F078F402C0C0E0D0E08C2FA4
S11303000E94800380E091E00E94F90461E0CE0144
S11303100E940F01A6C089E091E00E94F904A1C0E7
S11303208091BB028D3341F40E943501EB016536A7
S1130330710508F096C002C0C0E0D0E086E291E00A
S11303400E94F90461E0CE010E940F018AC08091ED
S1130350BB028D3309F085C00E9435016B017C011D
S11303608FEFC816D10409F058F4C092E90381E371
S113037091E00E94F90461E0C6010E940F0171C07E
S11303808DE391E00E94F9046CC08091BB028D332F
S113039009F067C00E9435019B01215031092936BB
S11303A0310598F4E7EEF3E02281620F6A3608F033
S11303B069E6628381E391E00E94F9048091E90394
S11303C061E090E00E940F014CC08AE591E00E9438
S11303D0F90447C08091BB028D3309F042C00E94EA
S11303E035014091E903242F30E02617370778F0D0
S11303F0C7EED3E0842F861B8A8381E391E00E94B9
S1130400F9048A8161E090E00E940F012AC089E723
S113041091E00E94F90425C081E08093F2038BE906
S113042091E00E94F9041DC01092F20381EA91E068
S11304300E94F90416C087EA91E00E94F904CAEB0D
S1130440D2E088810E94E40489EB91E00E94F904DF
S1130450888160E090E00E940F018CEB91E00E94A3
S1130460F90410928203DF91CF91FF90EF90DF9017
S1130470CF900895CF930E94CB049C0122273B7117
S1130480232B09F043C0E091B902F0E0E654FD4F9C
S11304908083E091B902F0E0E654FD4F80818A3018
S11304A041F0E091B902F0E0E654FD4F80818D30D7
S11304B041F58FEB91E00E94F9048091B902882301
S11304C069F0C0E0EC2FF0E0E654FD4F80810E941B
S11304D0E404CF5F8091B902C817A0F38BEC91E0DC
S11304E00E94F90481E0809382030E945D011092CE
S11304F0B90284E6EAEBF2E0DF011D928A95E9F79E
S113050005C08091B9028F5F8093B902CF9108959D
S1130510249A539A219A559A0895E0EBF0E0808149
S113052080628083808183608083E1EBF0E080815E
S113053082608083E1E8F0E080818860808380814C
S113054085608083EFE6F0E08081826080838BE9C0
S113055090E0909389008093880010928500109217
S1130560840078940895ECE7F0E0808180648083CF
S1130570EAE7F0E0808187608083808180688083FF
S11305800895ECE7F0E09081907F8F70892B808351
S1130590EAE7F0E0808180648083808186FDFDCF7E
S11305A0809178009091790008951F920F920FB670
S11305B00F9211242F933F934F935F936F937F93E5
S11305C08F939F93AF93BF93EF93FF9380E00E9429
S11305D0C1029093EF038093EE0383E00E94C10273
S11305E09C012C553140ABEABAEA0E948B089695DF
S11305F08795893C910528F01092EB031092EA0349
S11306000EC08A36910528F49093EB038093EA0395
S113061006C089E690E09093EB038093EA0381E0BF
S113062080935302FF91EF91BF91AF919F918F916E
S11306307F916F915F914F913F912F910F900FBEDA
S11306400F901F901895CF93DF9383E092E00E9460
S1130650F904C7EED3E060E08B819C810E940F0116
S11306608BE092E00E94F9048FE092E00E94F9048A
S11306708A8160E090E00E940F018BE092E00E948A
S1130680F9048C85813049F487E192E00E94F904F1
S11306908BE092E00E94F9040AC0811108C088E24C
S11306A092E00E94F9048BE092E00E94F9048091A8
S11306B0F303823041F486E392E00E94F9048BE074
S11306C092E00E94F90484E492E00E94F90460E05C
S11306D08091EE039091EF030E940F018BE092E072
S11306E00E94F904DF91CF910895811103C090E134
S11306F095B903C0813009F42C988093E7030895D9
S11307008093B4008093E8030895CF93DF93E7EEDA
S1130710F3E027813085818592852817390730F0E9
S11307201092B4001182138682E084878091F203D0
S1130730813009F07BC0E7EEF3E0238134818281CC
S113074090E0A9014E5F5F4F8417950778F0EF01A1
S1130750821B930B9683858380E00E9475038FEF41
S11307608093B400898381E08C8767C0233031058E
S113077008F452C0A901425051094817590708F416
S11307804BC0281B390B3093ED032093EC0381E01D
S11307900E94750380915002811109C08FEF8093EC
S11307A0B4008093E80381E08093500246C08091B6
S11307B04E0290914F028230910541F59BB180E247
S11307C089278BB92091EC033091ED0380914C0281
S11307D090914D022817390730F48FEF8093B400BD
S11307E08093E80304C01092B4001092E803E7EE8B
S11307F0F3E08581968190934D0280934C02109290
S11308004F0210924E0281E0848717C001969093A4
S11308104F0280934E0211C01092B400E7EEF3E051
S1130820118281E080935002148607C01092B400B4
S1130830E7EEF3E0118282E08487DF91CF9108959F
S11308400E9488020E948D020E94B30287E690E013
S11308500E94B2047894E7EEF3E08CE291E0928790
S11308608187138682E382830E943A028091820305
S113087081110E945D0180915302882321F00E941E
S11308808503109253028091510290915202843F49
S1130890914031F40E9423031092520210925102AB
S11308A0809151029091520201969093520280934A
S11308B05102DACF1F920F920FB60F9211242F9389
S11308C08F939F93EF93FF938091C0002091C60074
S11308D08871E0915602EF5FEF7390915502E9172A
S11308E039F0E0935602F0E0E75AFD4F208301C04F
S11308F082E090915402892B80935402FF91EF91EE
S11309009F918F912F910F900FBE0F901F9018956C
S11309101F920F920FB60F9211248F939F93EF9310
S1130920FF939091580280915702981769F0E091D3
S11309305702EF5FEF71E0935702F0E0E756FD4F87
S113094080818093C60005C0E1ECF0E080818F7D5A
S11309508083FF91EF919F918F910F900FBE0F9025
S11309601F90189510925802109257021092560236
S113097010925502992324F422E02093C0009F771B
S11309809093C5008093C40088E98093C10086E0F9
S11309908093C20008959091560280915502981751
S11309A081F0E0915502EF5FEF73E0935502F0E0C0
S11309B0E75AFD4F8081909154021092540290E0C6
S11309C0089580E091E00895209158022F5F2F71DF
S11309D0909157022917E1F3E22FF0E0E756FD4F1B
S11309E0808320935802E1ECF0E080818062808370
S11309F00895CF93DF93EC018881882331F0219609
S1130A000E94E40489918111FBCFDF91CF91089575
S1130A10A0E1B0E0EEE0F5E00C949A087C011B0143
S1130A206A01FC0117821682838181FF44C39E01FF
S1130A302F5F3F4F3901F7019381F10193FD8591B8
S1130A4093FF81911F01882309F431C3853239F45E
S1130A5093FD859193FF81911F01853239F4B7018C
S1130A6090E00E941C0A56016501E5CF10E0512C6C
S1130A70912CFFE1F915D8F08B3279F038F48032FB
S1130A8079F08332A1F4F92DF0612EC08D3261F03A
S1130A90803369F4292D21602DC0392D3260932EC5
S1130AA0892D8460982E2AC0E92DE86015C097FC32
S1130AB02DC020ED280F2A3088F496FE06C03AE0B7
S1130AC0139F200D1124122F19C08AE0589E200D67
S1130AD01124522EE92DE0629E2E10C08E3231F484
S1130AE096FCE5C2F92DF0649F2E08C08C3621F4E3
S1130AF0292D2068922E02C0883641F4F10193FD1D
S1130B00859193FF81911F018111B3CF9BEB980FC6
S1130B10933020F4992D9061805E07C09BE9980F73
S1130B20933008F066C1992D9F7E96FF16E09F735F
S1130B30992E853619F49064992E08C0863621F4CE
S1130B40392F3068932E02C01111115097FE07C03F
S1130B501C3350F444244394410E27E00BC0183056
S1130B6038F027E017E005C027E09CE3492E02C0D7
S1130B70212F412C560184E0A80EB11CF60160819E
S1130B80718182819381042DA3010E94EF086C017D
S1130B90F981FC87F0FF02C0F3FF06C091FC06C098
S1130BA092FE06C000E205C00DE203C00BE201C0E4
S1130BB000E08C858C7019F001115AC29BC297FE1B
S1130BC010C04C0CFC85F4FF04C08A81813309F405
S1130BD04A94141474F528E0241578F588E0482E16
S1130BE02CC096FC2AC0812F90E08C159D059CF0AA
S1130BF03CEFC3163FEFD30674F0892D8068982E1E
S1130C000AC0E2E0F0E0EC0FFD1FE10FF11D80816E
S1130C10803319F411501111F4CF97FE0EC04424FF
S1130C204394410E812F90E0C816D9062CF41C1968
S1130C3004C04424439401C010E097FE06C01C1471
S1130C401D0434F4C601019605C085E090E002C09D
S1130C5081E090E001110196112331F0212F30E061
S1130C602F5F3F4F820F931F252D30E0821793078C
S1130C7014F4581A01C0512C892D897049F4552057
S1130C8039F0B70180E290E00E941C0A5A94F7CF31
S1130C90002329F0B701802F90E00E941C0A93FCE6
S1130CA009C0552039F0B70180E390E00E941C0A86
S1130CB05A94F7CF97FE4CC04601D7FE02C0812C50
S1130CC0912CC60188199909F301E80FF91FFE87D1
S1130CD0ED87960124193109388B2F87012F10E0F5
S1130CE01195019511093FEF8316930629F4B70175
S1130CF08EE290E00E941C0AC814D9044CF08F853F
S1130D0098898815990524F4ED85FE85818101C0B3
S1130D1080E3F1E08F1A91082D853E852F5F3F4FC8
S1130D203E872D87801691062CF0B70190E00E9433
S1130D301C0AD9CFC814D90441F49A81963320F4FB
S1130D40953319F43C8534FF81E3B70190E04EC03C
S1130D508A81813319F09C859F7E9C87B70190E03E
S1130D600E941C0A111105C094FC18C085E690E08D
S1130D7017C0B7018EE290E00E941C0A1E5F82E059
S1130D8001E0080FF301E80FF11D8081B70190E045
S1130D900E941C0A802F0113F3CFE6CF85E490E074
S1130DA0B7010E941C0AD7FC06C0C114D10441F447
S1130DB0EC85E4FF05C0D194C194D1088DE201C053
S1130DC08BE2B70190E00E941C0A80E32AE0C2167D
S1130DD0D1042CF08F5FFAE0CF1AD108F7CFB70116
S1130DE090E00E941C0AB701C601C0960E941C0A2A
S1130DF054C1833631F0833779F0833509F056C016
S1130E0020C0560132E0A30EB11CF6018081898313
S1130E1001E010E0630112C05601F2E0AF0EB11C14
S1130E20F601C080D18096FE03C0612F70E002C03D
S1130E306FEF7FEFC6010E94E4098C01F92DFF7763
S1130E4014C0560122E0A20EB11CF601C080D1806C
S1130E5096FE03C0612F70E002C06FEF7FEFC60102
S1130E600E94C7098C01F92DF0689F2EF3FD1AC06A
S1130E70852D90E008171907A8F4B70180E290E0E7
S1130E800E941C0A5A94F4CFF60197FC859197FEB0
S1130E9081916F01B70190E00E941C0A51105A948D
S1130EA0015011090115110579F7F7C0843611F0C5
S1130EB0893661F5560197FE09C024E0A20EB11CE3
S1130EC0F60160817181828193810AC0F2E0AF0EE4
S1130ED0B11CF60160817181072E000C880B990BFF
S1130EE0F92DFF769F2E97FF09C0909580957095F8
S1130EF061957F4F8F4F9F4FF0689F2E2AE030E01F
S1130F00A3010E94580AC82EC6183FC0092D853770
S1130F1021F40F7E2AE030E01DC0097F8F3691F066
S1130F2018F4883559F0C3C0803719F0883711F0A8
S1130F30BEC0006104FF09C0046007C094FE08C07D
S1130F40066006C028E030E005C020E130E002C0C1
S1130F5020E132E0560107FF09C084E0A80EB11C6D
S1130F60F601608171818281938108C0F2E0AF0E45
S1130F70B11CF6016081718180E090E0A3010E94C0
S1130F80580AC82EC6180F77902E96FE0BC0092D4E
S1130F900E7FC11650F494FE0AC092FC08C0092DBD
S1130FA00E7E05C0DC2C092D03C0DC2C01C0D12E23
S1130FB004FF0DC0FE01EC0DF11D8081803311F49E
S1130FC0097E09C002FF06C0D394D39404C0802FC5
S1130FD0867809F0D39403FD11C000FF06C01C2DD0
S1130FE0D51480F4150D1D190DC0D51458F4B7018E
S1130FF080E290E00E941C0AD394F7CFD51410F439
S11310005D1801C0512C04FF10C0B70180E390E0CB
S11310100E941C0A02FF17C001FD03C088E790E08C
S113102002C088E590E0B7010CC0802F867859F0A3
S113103001FF02C08BE201C080E207FD8DE2B7012F
S113104090E00E941C0AC11638F4B70180E390E0D6
S11310500E941C0A1150F7CFCA94F301EC0DF11D44
S11310608081B70190E00E941C0AC110F5CF15C021
S1131070F4E0F51560F584E0581A93FE1FC00111E1
S113108027C02C8523FF2AC00EED10E0392D3071C6
S1131090932EF8018491811124C0552009F4E4CCE5
S11310A0B70180E290E00E941C0A5A94F6CFF7013F
S11310B08681978126C08FEF9FEF23C0B70180E21E
S11310C090E00E941C0A5A945110F8CFD8CF512CAA
S11310D0B701802F90E00E941C0AD3CF02EE10E0EB
S11310E0D5CF91108052B70190E00E941C0A0F5F87
S11310F01F4FCFCF23E0251510F483E0BDCF512C33
S1131100C0CF6096E2E10C94B608EE0FFF1F059085
S1131110F491E02D0994A29FB001B39FC001A39F55
S1131120700D811D1124911DB29F700D811D11241C
S1131130911D08952F923F924F925F926F927F92EA
S11311408F929F92AF92BF92CF92DF92EF92FF92D3
S11311500F931F93CF93DF93CDB7DEB7CA1BDB0B7F
S11311600FB6F894DEBF0FBECDBF09942A88398824
S113117048885F846E847D848C849B84AA84B9842B
S1131180C884DF80EE80FD800C811B81AA81B98137
S1131190CE0FD11D0FB6F894DEBF0FBECDBFED014B
S11311A00895FC0188279927E89421912032E9F3D6
S11311B0293010F02E30C8F32B3241F02D3239F49F
S11311C0689404C00E94FA09820F911D2191205352
S11311D02A30C0F31EF4909581959F4F08952830CE
S11311E008F027E03327DA01990F311D87FD91605C
S11311F000966105710539F432602E5F3D9330E34A
S11312002A95E1F708959F3F30F080387105610514
S113121009F03C5F3C5F3D93913008F08068911D7C
S1131220DF93CF931F930F93FF92EF92192F987F21
S11312309695E92F96959695E90FFF27E05CFE4F6A
S113124099273327EE24FF24A701E701059008948A
S1131250079428F4360FE71EF81E491F511D660F28
S1131260771F881F991F0694A1F70590079428F407
S1131270E70EF81E491F561FC11D770F881F991FBF
S1131280661F0694A1F70590079428F4F80E491FE9
S1131290561FC71FD11D880F991F661F771F0694FD
S11312A0A1F70590079420F4490F561FC71FD81FB4
S11312B0990F661F771F881F0694A9F784911095CC
S11312C0177041F0D695C79557954795F794E794CD
S11312D01A95C1F7E6EEF0E06894159015913591F2
S11312E06591959105907FE27395E118F10A430B9E
S11312F0560BC90BD009C0F7E10CF11E431F561F52
S1131300C91FD01D7EF4703311F48A95E6CFE8949A
S1131310015030F0080F0AF40027021708F4202FB8
S11313202395022F7A3328F079E37D932A95E9F700
S113133010C07D932A9589F60694979567953795FD
S113134017951794E118F10A430B560BC90BD009F2
S113135098F023957E9173957A3308F070E37C932B
S11313602013B8F77E9170617D9330F0839571E31B
S11313707D9370E32A95E1F71124EF90FF900F918C
S11313801F91CF91DF91992787FD90950895FC01D6
S11313900590615070400110D8F7809590958E0F9C
S11313A09F1F0895FC018191861721F08823D9F7A6
S11313B0992708953197CF010895FB01DC0101902D
S11313C00D920020E1F70895FC01615070400190F6
S11313D00110D8F7809590958E0F9F1F0895BB2715
S11313E04A3031F4992322F4BDE2909581959F4FC0
S11313F00C94030A7AE0979F902D879F802D910D7E
S113140011240895BB27FB015527AA27880F991F8C
S1131410AA1FA41710F0A41B83955051B9F7A05D1F
S1131420AA3308F0A95DA193009779F7B111B1939C
S11314301192CB010C94B60A0F931F93CF93DF93B1
S1131440FB01238121FD03C08FEF9FEF2CC022FFFE
S113145016C046815781248135814217530744F4CD
S1131460A081B1819D012F5F3F4F318320838C93F5
S1131470268137812F5F3F4F3783268314C08B012A
S1131480EC01FB010084F185E02D0995892BE1F63F
S1131490D80116968D919C911797019617969C9357
S11314A08E931697CE01DF91CF911F910F910895DE
S11314B0FA01AA27283051F1203181F1E8946F9381
S11314C06E7F6E5F7F4F8F4F9F4FAF4FB1E03ED027
S11314D0B4E03CD0670F781F891F9A1FA11D680FC5
S11314E0791F8A1F911DA11D6A0F711D811D911DF8
S11314F0A11D20D009F468943F912AE0269F11246D
S11315003019305D3193DEF6CF010895462F4770D0
S1131510405D4193B3E00FD0C9F7F6CF462F4F702B
S1131520405D4A3318F0495D31FD4052419302D089
S1131530A9F7EACFB4E0A69597958795779567952F
S1131540BA95C9F700976105710508959B01AC012F
S11315500A2E06945795479537952795BA95C9F756
S1131560620F731F841F951FA01D0895DC01FC01E9
S1131570672F71917723E1F7329704C07C916D93C3
S113158070836291AE17BF07C8F30895F894FFCF34
S11315905370656564203D20005370656564206E5A
S11315A06F7420696E2072616E6765206F662030EB
S11315B02D3235350A00652076616C7565203D2035
S11315C000536574706F696E74203D200053657418
S11315D0706F696E74206E6F7420696E2072616E14
S11315E0676520302D3235350A00536574706F6994
S11315F06E74206E6F7420696E2072616E67652050
S1131600746F6F206269670A00536574706F696E46
S113161074206E6F7420696E2072616E67652C2071
S1131620746F6F20736D616C6C0A0052657365741E
S11316300053544F5021004E6F2076616C69642032
S1131640636F6D6D616E643A00202800290A0052B0
S113165065636569766564203D3C003E0A00437518
S113166072723D0020536574703D0020416E676CBA
S11316703D00204572723D00205370643D002044BB
S113168069723D0050554C4C0A0052454C4541533B
S1131690450A006E302E76616C3D00FFFFFF006E40
S11316A0312E76616C3D0074332E7478743D22576C
S11316B04F524B494E47220074332E7478743D22A6
S11316C0444F4E45220074332E7478743D22535493
S10F16D04F5022006E322E76616C3D00FB
S9030000FC
