:100000000C94F0000C940D010C940D010C940D0156
:100010000C940D010C940D010C940D010C940D0128
:100020000C940D010C940D010C940D010C9409031A
:100030000C940D010C940D010C940D010C940D0108
:100040000C940D010C940D010C94F2040C942005F9
:100050000C940D010C940D010C940D010C940D01E8
:100060000C940D010C940D01D0015C0200025C02A5
:100070005C025C025C025C025C025C025C025C0290
:100080005C025C025C025C025C025C025C025C0280
:100090005C025C025C025C025C025C025C025C0270
:1000A0005C025C025C025C025C025C025C025C0260
:1000B0005C02A7015C022C0238025C025C02710146
:1000C0005C0242025C025C025C025C025C025C025A
:1000D0005C025C025C025C025C025C0290016E618C
:1000E0006E00696E660000407A10F35A00A0724EEE
:1000F00018090010A5D4E80000E87648170000E4CD
:100100000B54020000CA9A3B000000E1F505000014
:1001100080969800000040420F000000A086010079
:100120000000102700000000E80300000000640049
:10013000000000000A0000000000010000000000B4
:100140002C76D888DC674F0823DFC1DFAE59E1B1D8
:10015000B796E5E3E453C63AE651997696E8E6C2E7
:100160008426EB898C9B62ED407C6FFCEFBC9C9FEE
:1001700040F2BAA56FA5F490055A2AF75C936B6C10
:10018000F9676DC11BFCE0E40D47FEF520E6B50004
:10019000D0ED902E0300943577050080841E080072
:1001A00000204E0A000000C80C333333330F986E22
:1001B00012831141EF8D2114893BE65516CFFEE6DF
:1001C000DB18D1844B381BF77C1D901DA4BBE424A5
:1001D000203284725E228100C9F124ECA1E53D2722
:1001E00011241FBECFEFD8E0DEBFCDBF13E0A0E0EB
:1001F000B1E0E0ECF6E102C005900D92A430B10749
:10020000D9F724E0A4E0B3E001C01D92A13BB207FE
:10021000E1F70E94B3040C945E0B0C9400001F9352
:10022000CF93DF93CDB7DEB728970FB6F894DEBF34
:100230000FBECDBF162F4AE0BE016F5F7F4F0E94F9
:10024000870ACE0101960E949105112321F082EFC9
:1002500091E00E94910528960FB6F894DEBF0FBE7C
:10026000CDBFDF91CF911F910895CF93DF93CDB78D
:10027000DEB760970FB6F894DEBF0FBECDBF6DE35B
:1002800070E084E793E00E946A0ABC016F5F7F4FD1
:10029000CE0101960E94750ACE0101960E9469095D
:1002A000BC01990F880B990B60960FB6F894DEBFCE
:1002B0000FBECDBFDF91CF910895CF92DF92EF9225
:1002C000FF92CF93DF93E09174038E2F90E0FC01B7
:1002D000BB97EB33F10508F0EFC0EC5CFF4F0C94DB
:1002E0001D09809175038D3341F40E943501EB01A6
:1002F0006F3F710509F078F402C0C0E0D0E08C2FA8
:100300000E940D0480E091E00E94910561E0CE0121
:100310000E940F01E7C089E091E00E949105E2C0D0
:10032000809175038D3341F40E943501EB016536F0
:10033000710508F0D7C002C0C0E0D0E086E291E0CD
:100340000E94910561E0CE010E940F01CBC0809117
:1003500075038D3309F0C6C08091AF048111C2C00E
:100360008091B0048111BEC00E9435016B017C01F7
:100370008FEFC816D10409F070F4E1EAF4E0C2820C
:1003800083E0868381E391E00E94910561E0C601EC
:100390000E940F01A7C08DE391E00E949105A2C0C9
:1003A000809175038D3309F09DC08091AF04811158
:1003B00099C08091B004811195C00E9435019B01C4
:1003C0002150310929363105B0F4E1EAF4E0228107
:1003D000620F6A3608F069E66283C1EAD4E083E01E
:1003E0008E8381E391E00E9491058A8161E090E033
:1003F0000E940F0177C08AE591E00E94910572C0CA
:10040000809175038D3309F06DC08091AF04811127
:1004100069C08091B004811165C00E94350140918E
:10042000A304242F30E02617370788F0C1EAD4E070
:10043000842F861B8A8383E08E8381E391E00E9470
:1004400091058A8161E090E00E940F014BC089E72D
:1004500091E00E94910546C0E1EAF4E081E08587E1
:10046000168683E086838BE991E00E9491053AC06D
:10047000E1EAF4E0158683E0878781EA91E00E9453
:10048000910530C0809175038D3361F50E9435016F
:100490006536710560F4E1EAF4E022812383668722
:1004A00083E0868387EA91E00E9491051BC08CEB74
:1004B00091E00E94910516C08CED91E00E9491059B
:1004C000C4E7D3E088810E947C058EEE91E00E9413
:1004D0009105888160E090E00E940F0181EF91E03A
:1004E0000E94910510923C04DF91CF91FF90EF9014
:1004F000DF90CF900895CF930E9463059C0122273F
:100500003B71232B09F043C0E0917303F0E0EC58FA
:10051000FC4F8083E0917303F0E0EC58FC4F808146
:100520008A3041F0E0917303F0E0EC58FC4F808199
:100530008D3041F584EF91E00E9491058091730325
:10054000882369F0C0E0EC2FF0E0EC58FC4F80818C
:100550000E947C05CF5F80917303C817A0F380E0F1
:1005600092E00E94910581E080933C040E945D012D
:100570001092730384E6E4E7F3E0DF011D928A95AD
:10058000E9F705C0809173038F5F80937303CF9168
:100590000895249A539A219A559A0895E1E8F0E033
:1005A000808188608083808185608083EFE6F0E0D1
:1005B0008081826080838BE990E0909389008093B2
:1005C0008800109285001092840078940895ECE7DA
:1005D000F0E0808180648083EAE7F0E080818760DA
:1005E00080838081806880830895ECE7F0E09081CB
:1005F000907F8F70892B8083EAE7F0E080818064B0
:100600008083808186FDFDCF809178009091790074
:1006100008951F920F920FB60F9211242F933F93BC
:100620004F935F936F937F938F939F93AF93BF93FA
:10063000EF93FF9380E00E94F5029093AB048093C8
:10064000AA0483E00E94F5029C012C553140ABEADC
:10065000BAEA0E94230996958795893C910528F06E
:100660001092A6041092A5040EC08A36910528F4B3
:100670009093A6048093A50406C089E690E0909329
:10068000A6048093A504E1EAF4E021853285838500
:1006900094858217930750F48091090390910A037F
:1006A000019690930A038093090304C010920A03F1
:1006B000109209038091090390910A0380359105F6
:1006C00049F4E1EAF4E0158684E0878710920A0392
:1006D0001092090381E080930D03FF91EF91BF9188
:1006E000AF919F918F917F916F915F914F913F91CA
:1006F0002F910F900FBE0F901F901895CF93DF93FF
:100700008DE692E00E949105C1EAD4E060E08C8120
:100710009D810E940F018FEF92E00E94910585E775
:1007200092E00E9491058A8160E090E00E940F01B2
:100730008FEF92E00E9491058F858230E9F028F4D6
:10074000882359F1813039F05AC08330B9F18430AF
:1007500009F445C054C08DE792E00E9491058FEFE7
:1007600092E00E9491058DE892E00E9491058FEF42
:1007700092E00E94910543C087E992E00E949105B2
:100780008FEF92E00E9491058DE892E00E94910522
:100790008FEF92E00E94910532C08AEA92E00E94B7
:1007A00091058FEF92E00E94910589EB92E00E9403
:1007B00091058FEF92E00E94910521C083EC92E0B9
:1007C0000E9491058FEF92E00E94910588ED92E0E2
:1007D0000E9491058FEF92E00E94910510C082EE79
:1007E00092E00E9491058FEF92E00E94910588EDC2
:1007F00092E00E9491058FEF92E00E949105DF91B7
:10080000CF910895811103C090E195B903C0813063
:1008100009F42C988093A10408958F3F19F488E07F
:100820008BB90895811102C05B9808958093B4003C
:100830008093A20408958091AF048823C9F0909119
:10084000B004911115C093E09093A7049091040314
:10085000992349F0E1EAF4E0938192831092040332
:100860008150868708951092A30481E08093040349
:100870000895CF93DF938091AE04813009F06DC06D
:10088000E1EAF4E044815581268130E0828190E004
:10089000BA01620F731F8617970770F0EF01841B70
:1008A000950B9087878380E00E9402048FEF0E945F
:1008B0000D0481E08F874EC02417350708F042C031
:1008C000BA01621B730B68177907E0F1481B590BDB
:1008D0005093A9044093A80481E00E9402048091EF
:1008E0000703909108038230910519F59BB180E2CE
:1008F00089278BB92091A8043091A9048091050320
:10090000909106032817390720F48FEF0E940D04F9
:1009100003C080E00E940D048091A8049091A90476
:100920009093060380930503109208031092070327
:1009300005C00196909308038093070382E080939B
:10094000B00408C080E00E940D04E1EAF4E088E011
:10095000868317860E941B0403C080E00E940D045A
:10096000DF91CF9108950E94C9020E94CE020E9499
:10097000E70287E690E00E944A05789488EF92E0CB
:100980000E949105E1EAF4E08EE591E09487838787
:10099000158683E08683878782E382830E947B02B9
:1009A00080910D03882349F080913C0481110E94BD
:1009B0005D010E94390410920D0380910B03909108
:1009C0000C03843F21E0920739F40E947E031092C9
:1009D0000C0310920B03E2CF019690930C038093CB
:1009E0000B03DCCF1F920F920FB60F9211242F939F
:1009F0008F939F93EF93FF938091C0002091C60047
:100A00008871E0911003EF5FEF7390910F03E91786
:100A100039F0E0931003F0E0ED5EFC4F208301C05D
:100A200082E090910E03892B80930E03FF91EF914A
:100A30009F918F912F910F900FBE0F901F9018953F
:100A40001F920F920FB60F9211248F939F93EF93E3
:100A5000FF939091120380911103981769F0E09130
:100A60001103EF5FEF71E0931103F0E0ED5AFC4FDB
:100A700080818093C60005C0E1ECF0E080818F7D2D
:100A80008083FF91EF919F918F910F900FBE0F90F8
:100A90001F901895109212031092110310921003D8
:100AA00010920F03992324F422E02093C0009F7733
:100AB0009093C5008093C40088E98093C10086E0CC
:100AC0008093C20008959091100380910F039817AE
:100AD00081F0E0910F03EF5FEF73E0930F03F0E01D
:100AE000ED5EFC4F808190910E0310920E0390E01A
:100AF000089580E091E00895209112032F5F2F71F7
:100B0000909111032917E1F3E22FF0E0ED5AFC4F29
:100B1000808320931203E1ECF0E080818062808387
:100B20000895CF93DF93EC018881882331F02196DB
:100B30000E947C0589918111FBCFDF91CF910895AF
:100B4000A0E1B0E0E6EAF5E00C9432097C011B017B
:100B50006A01FC0117821682838181FF44C39E01D2
:100B60002F5F3F4F3901F7019381F10193FD85918B
:100B700093FF81911F01882309F431C3853239F431
:100B800093FD859193FF81911F01853239F4B7015F
:100B900090E00E94B40A56016501E5CF10E0512CA7
:100BA000912CFFE1F915D8F08B3279F038F48032CE
:100BB00079F08332A1F4F92DF0612EC08D3261F00D
:100BC000803369F4292D21602DC0392D3260932E98
:100BD000892D8460982E2AC0E92DE86015C097FC05
:100BE0002DC020ED280F2A3088F496FE06C03AE08A
:100BF000139F200D1124122F19C08AE0589E200D3A
:100C00001124522EE92DE0629E2E10C08E3231F456
:100C100096FCE5C2F92DF0649F2E08C08C3621F4B5
:100C2000292D2068922E02C0883641F4F10193FDEF
:100C3000859193FF81911F018111B3CF9BEB980F99
:100C4000933020F4992D9061805E07C09BE9980F46
:100C5000933008F066C1992D9F7E96FF16E09F7332
:100C6000992E853619F49064992E08C0863621F4A1
:100C7000392F3068932E02C01111115097FE07C012
:100C80001C3350F444244394410E27E00BC0183029
:100C900038F027E017E005C027E09CE3492E02C0AA
:100CA000212F412C560184E0A80EB11CF601608171
:100CB000718182819381042DA3010E9487096C01B7
:100CC000F981FC87F0FF02C0F3FF06C091FC06C06B
:100CD00092FE06C000E205C00DE203C00BE201C0B7
:100CE00000E08C858C7019F001115AC29BC297FEEE
:100CF00010C04C0CFC85F4FF04C08A81813309F4D8
:100D00004A94141474F528E0241578F588E0482EE8
:100D10002CC096FC2AC0812F90E08C159D059CF07C
:100D20003CEFC3163FEFD30674F0892D8068982EF0
:100D30000AC0E2E0F0E0EC0FFD1FE10FF11D808141
:100D4000803319F411501111F4CF97FE0EC04424D2
:100D50004394410E812F90E0C816D9062CF41C193B
:100D600004C04424439401C010E097FE06C01C1444
:100D70001D0434F4C601019605C085E090E002C070
:100D800081E090E001110196112331F0212F30E034
:100D90002F5F3F4F820F931F252D30E0821793075F
:100DA00014F4581A01C0512C892D897049F455202A
:100DB00039F0B70180E290E00E94B40A5A94F7CF6C
:100DC000002329F0B701802F90E00E94B40A93FC21
:100DD00009C0552039F0B70180E390E00E94B40AC1
:100DE0005A94F7CF97FE4CC04601D7FE02C0812C23
:100DF000912CC60188199909F301E80FF91FFE87A4
:100E0000ED87960124193109388B2F87012F10E0C7
:100E10001195019511093FEF8316930629F4B70147
:100E20008EE290E00E94B40AC814D9044CF08F8579
:100E300098898815990524F4ED85FE85818101C086
:100E400080E3F1E08F1A91082D853E852F5F3F4F9B
:100E50003E872D87801691062CF0B70190E00E9406
:100E6000B40AD9CFC814D90441F49A81963320F436
:100E7000953319F43C8534FF81E3B70190E04EC00F
:100E80008A81813319F09C859F7E9C87B70190E011
:100E90000E94B40A111105C094FC18C085E690E0C8
:100EA00017C0B7018EE290E00E94B40A1E5F82E094
:100EB00001E0080FF301E80FF11D8081B70190E018
:100EC0000E94B40A802F0113F3CFE6CF85E490E0AF
:100ED000B7010E94B40AD7FC06C0C114D10441F482
:100EE000EC85E4FF05C0D194C194D1088DE201C026
:100EF0008BE2B70190E00E94B40A80E32AE0C216B8
:100F0000D1042CF08F5FFAE0CF1AD108F7CFB701E8
:100F100090E00E94B40AB701C601C0960E94B40ACC
:100F200054C1833631F0833779F0833509F056C0E8
:100F300020C0560132E0A30EB11CF60180818983E6
:100F400001E010E0630112C05601F2E0AF0EB11CE7
:100F5000F601C080D18096FE03C0612F70E002C010
:100F60006FEF7FEFC6010E947C0A8C01F92DFF779D
:100F700014C0560122E0A20EB11CF601C080D1803F
:100F800096FE03C0612F70E002C06FEF7FEFC601D5
:100F90000E945F0A8C01F92DF0689F2EF3FD1AC0A4
:100FA000852D90E008171907A8F4B70180E290E0BA
:100FB0000E94B40A5A94F4CFF60197FC859197FEEB
:100FC00081916F01B70190E00E94B40A51105A94C8
:100FD000015011090115110579F7F7C0843611F098
:100FE000893661F5560197FE09C024E0A20EB11CB6
:100FF000F60160817181828193810AC0F2E0AF0EB7
:10100000B11CF60160817181072E000C880B990BD1
:10101000F92DFF769F2E97FF09C0909580957095CA
:1010200061957F4F8F4F9F4FF0689F2E2AE030E0F1
:10103000A3010E94F00AC82EC6183FC0092D8537AB
:1010400021F40F7E2AE030E01DC0097F8F3691F039
:1010500018F4883559F0C3C0803719F0883711F07B
:10106000BEC0006104FF09C0046007C094FE08C050
:10107000066006C028E030E005C020E130E002C094
:1010800020E132E0560107FF09C084E0A80EB11C40
:10109000F601608171818281938108C0F2E0AF0E18
:1010A000B11CF6016081718180E090E0A3010E9493
:1010B000F00AC82EC6180F77902E96FE0BC0092D89
:1010C0000E7FC11650F494FE0AC092FC08C0092D90
:1010D0000E7E05C0DC2C092D03C0DC2C01C0D12EF6
:1010E00004FF0DC0FE01EC0DF11D8081803311F471
:1010F000097E09C002FF06C0D394D39404C0802F98
:10110000867809F0D39403FD11C000FF06C01C2DA2
:10111000D51480F4150D1D190DC0D51458F4B70160
:1011200080E290E00E94B40AD394F7CFD51410F473
:101130005D1801C0512C04FF10C0B70180E390E09E
:101140000E94B40A02FF17C001FD03C088E790E0C7
:1011500002C088E590E0B7010CC0802F867859F076
:1011600001FF02C08BE201C080E207FD8DE2B70102
:1011700090E00E94B40AC11638F4B70180E390E011
:101180000E94B40A1150F7CFCA94F301EC0DF11D7F
:101190008081B70190E00E94B40AC110F5CF15C05C
:1011A000F4E0F51560F584E0581A93FE1FC00111B4
:1011B00027C02C8523FF2AC00EED10E0392D307199
:1011C000932EF8018491811124C0552009F4E4CCB8
:1011D000B70180E290E00E94B40A5A94F6CFF7017A
:1011E0008681978126C08FEF9FEF23C0B70180E2F1
:1011F00090E00E94B40A5A945110F8CFD8CF512CE5
:10120000B701802F90E00E94B40AD3CF02EE10E025
:10121000D5CF91108052B70190E00E94B40A0F5FC1
:101220001F4FCFCF23E0251510F483E0BDCF512C05
:10123000C0CF6096E2E10C944E09EE0FFF1F0590BF
:10124000F491E02D0994A29FB001B39FC001A39F28
:10125000700D811D1124911DB29F700D811D1124EF
:10126000911D08952F923F924F925F926F927F92BD
:101270008F929F92AF92BF92CF92DF92EF92FF92A6
:101280000F931F93CF93DF93CDB7DEB7CA1BDB0B52
:101290000FB6F894DEBF0FBECDBF09942A883988F7
:1012A00048885F846E847D848C849B84AA84B984FE
:1012B000C884DF80EE80FD800C811B81AA81B9810A
:1012C000CE0FD11D0FB6F894DEBF0FBECDBFED011E
:1012D0000895FC0188279927E89421912032E9F3A9
:1012E000293010F02E30C8F32B3241F02D3239F472
:1012F000689404C00E94920A820F911D219120538C
:101300002A30C0F31EF4909581959F4F08952830A0
:1013100008F027E03327DA01990F311D87FD91602E
:1013200000966105710539F432602E5F3D9330E31C
:101330002A95E1F708959F3F30F0803871056105E7
:1013400009F03C5F3C5F3D93913008F08068911D4F
:10135000DF93CF931F930F93FF92EF92192F987FF4
:101360009695E92F96959695E90FFF27E05CFE4F3D
:1013700099273327EE24FF24A701E701059008945D
:10138000079428F4360FE71EF81E491F511D660FFB
:10139000771F881F991F0694A1F70590079428F4DA
:1013A000E70EF81E491F561FC11D770F881F991F92
:1013B000661F0694A1F70590079428F4F80E491FBC
:1013C000561FC71FD11D880F991F661F771F0694D0
:1013D000A1F70590079420F4490F561FC71FD81F87
:1013E000990F661F771F881F0694A9F7849110959F
:1013F000177041F0D695C79557954795F794E794A0
:101400001A95C1F7E6EEF0E06894159015913591C4
:101410006591959105907FE27395E118F10A430B70
:10142000560BC90BD009C0F7E10CF11E431F561F24
:10143000C91FD01D7EF4703311F48A95E6CFE8946D
:10144000015030F0080F0AF40027021708F4202F8B
:101450002395022F7A3328F079E37D932A95E9F7D3
:1014600010C07D932A9589F60694979567953795D0
:1014700017951794E118F10A430B560BC90BD009C5
:1014800098F023957E9173957A3308F070E37C93FE
:101490002013B8F77E9170617D9330F0839571E3EE
:1014A0007D9370E32A95E1F71124EF90FF900F915F
:1014B0001F91CF91DF91992787FD90950895FC01A9
:1014C0000590615070400110D8F7809590958E0F6F
:1014D0009F1F0895FC018191861721F08823D9F779
:1014E000992708953197CF010895FB01DC01019000
:1014F0000D920020E1F70895FC01615070400190C9
:101500000110D8F7809590958E0F9F1F0895BB27E7
:101510004A3031F4992322F4BDE2909581959F4F92
:101520000C949B0A7AE0979F902D879F802D910DB8
:1015300011240895BB27FB015527AA27880F991F5F
:10154000AA1FA41710F0A41B83955051B9F7A05DF2
:10155000AA3308F0A95DA193009779F7B111B1936F
:101560001192CB010C944E0B0F931F93CF93DF93EB
:10157000FB01238121FD03C08FEF9FEF2CC022FFD1
:1015800016C046815781248135814217530744F4A0
:10159000A081B1819D012F5F3F4F318320838C93C8
:1015A000268137812F5F3F4F3783268314C08B01FD
:1015B000EC01FB010084F185E02D0995892BE1F612
:1015C000D80116968D919C911797019617969C932A
:1015D0008E931697CE01DF91CF911F910F910895B1
:1015E000FA01AA27283051F1203181F1E8946F9354
:1015F0006E7F6E5F7F4F8F4F9F4FAF4FB1E03ED0FA
:10160000B4E03CD0670F781F891F9A1FA11D680F97
:10161000791F8A1F911DA11D6A0F711D811D911DCA
:10162000A11D20D009F468943F912AE0269F11243F
:101630003019305D3193DEF6CF010895462F4770A3
:10164000405D4193B3E00FD0C9F7F6CF462F4F70FE
:10165000405D4A3318F0495D31FD4052419302D05C
:10166000A9F7EACFB4E0A695979587957795679502
:10167000BA95C9F700976105710508959B01AC0102
:101680000A2E06945795479537952795BA95C9F729
:10169000620F731F841F951FA01D0895DC01FC01BC
:1016A000672F71917723E1F7329704C07C916D9396
:1016B00070836291AE17BF07C8F30895F894FFCF07
:1016C0005370656564203D20005370656564206E2D
:1016D0006F7420696E2072616E6765206F662030BE
:1016E0002D3235350A00652076616C7565203D2008
:1016F00000536574706F696E74203D2000536574EB
:10170000706F696E74206E6F7420696E2072616EE6
:10171000676520302D3235350A00536574706F6966
:101720006E74206E6F7420696E2072616E67652022
:10173000746F6F206269670A00536574706F696E19
:1017400074206E6F7420696E2072616E67652C2044
:10175000746F6F20736D616C6C0A005265736574F1
:101760000053544F502100446F696E6720617574B7
:101770006F206D6F76656D656E740A004D756C74C3
:1017800069706C79206D6F76656D656E74206E6F13
:101790007420696E2072616E67650A004E6F207654
:1017A000616C696420636F6D6D616E643A0020281E
:1017B00000290A005265636569766564203D3C0036
:1017C0003E0A00437572723D0020536574703D00FF
:1017D00020416E676C3D00204572723D00205370C1
:1017E000643D00204469723D0050554C4C00524508
:1017F0004C454153450020535441543D00574F52EE
:101800004B494E472055500A00574F524B494E47BF
:1018100020444F574E0A00444F4E450A0053544F40
:10182000500A0043555252204F56460A006E302E41
:1018300076616C3D006E312E76616C3D0074332E06
:101840007478743D225452454B2E2E220074332E50
:10185000706963633D300074332E7478743D224F99
:101860004E545350414E2E2E220074332E747874F1
:101870003D224B4C414152220074332E7069636308
:101880003D310074332E7478743D2253544F502CE4
:10189000205245534554220074332E706963633DD2
:1018A000320074332E7478743D2253544F502C20E0
:1018B0004B52414348542200FFFFFF72657374FF8F
:0418C000FFFF000026
:00000001FF
