:100000000C94F0000C940D010C940D010C940D0156
:100010000C940D010C940D010C940D010C940D0128
:100020000C940D010C940D010C940D010C9409031A
:100030000C940D010C940D010C940D010C940D0108
:100040000C940D010C940D010C94F9040C942705EB
:100050000C940D010C940D010C940D010C940D01E8
:100060000C940D010C940D01D0015C0200025C02A5
:100070005C025C025C025C025C025C025C025C0290
:100080005C025C025C025C025C025C025C025C0280
:100090005C025C025C025C025C025C025C025C0270
:1000A0005C025C025C025C025C025C025C025C0260
:1000B0005C02A7015C022C0238025C025C02710146
:1000C0005C0242025C025C025C025C025C025C025A
:1000D0005C025C025C025C025C025C0290016E618C
:1000E0006E00696E660000407A10F35A00A0724EEE
:1000F00018090010A5D4E80000E87648170000E4CD
:100100000B54020000CA9A3B000000E1F505000014
:1001100080969800000040420F000000A086010079
:100120000000102700000000E80300000000640049
:10013000000000000A0000000000010000000000B4
:100140002C76D888DC674F0823DFC1DFAE59E1B1D8
:10015000B796E5E3E453C63AE651997696E8E6C2E7
:100160008426EB898C9B62ED407C6FFCEFBC9C9FEE
:1001700040F2BAA56FA5F490055A2AF75C936B6C10
:10018000F9676DC11BFCE0E40D47FEF520E6B50004
:10019000D0ED902E0300943577050080841E080072
:1001A00000204E0A000000C80C333333330F986E22
:1001B00012831141EF8D2114893BE65516CFFEE6DF
:1001C000DB18D1844B381BF77C1D901DA4BBE424A5
:1001D000203284725E228100C9F124ECA1E53D2722
:1001E00011241FBECFEFD8E0DEBFCDBF12E0A0E0EC
:1001F000B1E0EEECF6E102C005900D92AC3FB10724
:10020000D9F724E0ACEFB2E001C01D92AA3AB207E0
:10021000E1F70E94BF040C94650B0C9400001F933F
:10022000CF93DF93CDB7DEB728970FB6F894DEBF34
:100230000FBECDBF162F4AE0BE016F5F7F4F0E94F9
:100240008E0ACE0101960E949805112321F082EFBB
:1002500091E00E94980528960FB6F894DEBF0FBE75
:10026000CDBFDF91CF911F910895CF93DF93CDB78D
:10027000DEB760970FB6F894DEBF0FBECDBF6DE35B
:1002800070E08DE693E00E94710ABC016F5F7F4FC2
:10029000CE0101960E947C0ACE0101960E9470094F
:1002A000BC01990F880B990B60960FB6F894DEBFCE
:1002B0000FBECDBFDF91CF910895CF92DF92EF9225
:1002C000FF92CF93DF93E0916D038E2F90E0FC01BE
:1002D000BB97EB33F10508F0EFC0EC5CFF4F0C94DB
:1002E000240980916E038D3341F40E943501EB01A6
:1002F0006F3F710509F078F402C0C0E0D0E08C2FA8
:100300000E940F0480E091E00E94980561E0CE0118
:100310000E940F01E7C089E091E00E949805E2C0C9
:1003200080916E038D3341F40E943501EB016536F7
:10033000710508F0D7C002C0C0E0D0E086E291E0CD
:100340000E94980561E0CE010E940F01CBC0809110
:100350006E038D3309F0C6C08091A8048111C2C01C
:100360008091A9048111BEC00E9435016B017C01FE
:100370008FEFC816D10409F070F4EAE9F4E0C28204
:1003800083E0868381E391E00E94980561E0C601E5
:100390000E940F01A7C08DE391E00E949805A2C0C2
:1003A00080916E038D3309F09DC08091A804811166
:1003B00099C08091A904811195C00E9435019B01CB
:1003C0002150310929363105B0F4EAE9F4E02281FF
:1003D000620F6A3608F069E66283CAE9D4E083E016
:1003E0008E8381E391E00E9498058A8161E090E02C
:1003F0000E940F0177C08AE591E00E94980572C0C3
:1004000080916E038D3309F06DC08091A804811135
:1004100069C08091A904811165C00E943501409195
:100420009C04242F30E02617370788F0CAE9D4E06F
:10043000842F861B8A8383E08E8381E391E00E9470
:1004400098058A8161E090E00E940F014BC089E726
:1004500091E00E94980546C0EAE9F4E081E08587D2
:10046000168683E086838BE991E00E9498053AC066
:10047000EAE9F4E0158683E0878781EA91E00E944B
:10048000980530C080916E038D3361F50E9435016F
:100490006536710560F4EAE9F4E02281238366871A
:1004A00083E0868387EA91E00E9498051BC08CEB6D
:1004B00091E00E94980516C08CED91E00E9498058D
:1004C000CDE6D3E088810E9483058EEE91E00E9404
:1004D0009805888160E090E00E940F0181EF91E033
:1004E0000E94980510923504DF91CF91FF90EF9014
:1004F000DF90CF900895CF930E946A059C01222738
:100500003B71232B09F043C0E0916C03F0E0E35909
:10051000FC4F8083E0916C03F0E0E359FC4F808155
:100520008A3041F0E0916C03F0E0E359FC4F8081A8
:100530008D3041F584EF91E00E94980580916C0325
:10054000882369F0C0E0EC2FF0E0E359FC4F808194
:100550000E948305CF5F80916C03C817A0F380E0F1
:1005600092E00E94980581E0809335040E945D012D
:1005700010926C0384E6EDE6F3E0DF011D928A95AC
:10058000E9F705C080916C038F5F80936C03CF9176
:100590000895249A539A219A559A0895E1E8F0E033
:1005A000808188608083808185608083EFE6F0E0D1
:1005B0008081826080838BE990E0909389008093B2
:1005C0008800109285001092840078940895ECE7DA
:1005D000F0E0808180648083EAE7F0E080818760DA
:1005E00080838081806880830895ECE7F0E09081CB
:1005F000907F8F70892B8083EAE7F0E080818064B0
:100600008083808186FDFDCF809178009091790074
:1006100008951F920F920FB60F9211242F933F93BC
:100620004F935F936F937F938F939F93AF93BF93FA
:10063000EF93FF9380E00E94F5029093A4048093CF
:10064000A30483E00E94F5029C012C553140ABEAE3
:10065000BAEA0E942A0996958795893C910528F067
:1006600010929F0410929E040EC08A36910528F4C1
:1006700090939F0480939E0406C089E690E0909337
:100680009F0480939E04EAE9F4E021853285838506
:1006900094858217930750F480910203909103038D
:1006A0000196909303038093020304C01092030306
:1006B0001092020380910203909103038639910501
:1006C00059F4EAE9F4E0158684E0878712821686F9
:1006D000109203031092020381E080930603FF91BE
:1006E000EF91BF91AF919F918F917F916F915F91AA
:1006F0004F913F912F910F900FBE0F901F90189523
:10070000CF93DF938DE692E00E949805CAE9D4E08A
:1007100060E08C819D810E940F0185E792E00E943C
:10072000980589E792E00E9498058A8160E090E050
:100730000E940F0185E792E00E9498058F85823024
:10074000E9F028F4882359F1813039F05AC0833018
:10075000B9F1843009F445C054C081E892E00E94A8
:10076000980585E792E00E94980581E992E00E9451
:10077000980585E792E00E94980543C08BE992E0D6
:100780000E94980585E792E00E94980581E992E031
:100790000E94980585E792E00E94980532C08EEA93
:1007A00092E00E94980585E792E00E9498058DEB03
:1007B00092E00E94980585E792E00E94980521C08A
:1007C00087EC92E00E94980585E792E00E949805E8
:1007D0008CED92E00E94980585E792E00E949805D2
:1007E00010C086EE92E00E94980585E792E00E9494
:1007F00098058CED92E00E94980585E792E00E94B2
:100800009805DF91CF910895811103C090E195B9CA
:1008100003C0813009F42C9880939A0408958F3F87
:1008200019F488E08BB90895811102C05B9808958E
:100830008093B40080939B0408958091A80488233A
:10084000E1F09091A904911118C093E09093A00455
:100850009091FC02992349F0EAE9F4E093819283B4
:100860001092FC02815086870895EAE9F4E08381C2
:100870008F50828381E08093FC020895CF93DF93B1
:100880008091A704813009F076C0EAE9F4E0448160
:100890005581268130E0828190E0BA01620F731F9A
:1008A0008617970768F0EF01841B950B9087878365
:1008B00080E00E94040488E08BB981E08F8758C0F3
:1008C0002417350708F04CC0BA01621B730B681778
:1008D000790708F445C0481B590B5093A204409374
:1008E000A10481E00E94040480910003909101031F
:1008F0008230910561F58091FF02823040F488E0FA
:100900008BB98091FF028F5F8093FF0213C09BB170
:1009100080E289278BB92091A1043091A2048091B3
:10092000FD029091FE022817390718F488E08BB970
:1009300001C05B988091A1049091A2049093FE0263
:100940008093FD02109201031092000305C00196EE
:10095000909301038093000382E08093A90408C070
:100960005B98EAE9F4E088E086831092FF0217863C
:100970000E941D0401C05B98DF91CF9108950E94F1
:10098000C9020E94CE020E94E70287E690E00E9420
:1009900051057894EAE9F4E082E890E0948783874F
:1009A000158683E08683878712820E947B0280916E
:1009B0000603882349F08091350481110E945D016E
:1009C0000E943E0410920603809104039091050357
:1009D000843F21E0920739F40E94800310920503BE
:1009E00010920403E2CF01969093050380930403D1
:1009F000DCCF1F920F920FB60F9211242F938F937B
:100A00009F93EF93FF938091C0002091C60088715F
:100A1000E0910903EF5FEF7390910803E91739F054
:100A2000E0930903F0E0E45FFC4F208301C082E023
:100A300090910703892B80930703FF91EF919F917A
:100A40008F912F910F900FBE0F901F9018951F92AE
:100A50000F920FB60F9211248F939F93EF93FF93F2
:100A600090910B0380910A03981769F0E0910A03B3
:100A7000EF5FEF71E0930A03F0E0E45BFC4F8081ED
:100A80008093C60005C0E1ECF0E080818F7D80831B
:100A9000FF91EF919F918F910F900FBE0F901F903C
:100AA000189510920B0310920A03109209031092EA
:100AB0000803992324F422E02093C0009F779093A9
:100AC000C5008093C40088E98093C10086E08093CC
:100AD000C20008959091090380910803981781F04E
:100AE000E0910803EF5FEF73E0930803F0E0E45F49
:100AF000FC4F8081909107031092070390E00895C6
:100B000080E091E0089520910B032F5F2F71909169
:100B10000A032917E1F3E22FF0E0E45BFC4F808346
:100B200020930B03E1ECF0E08081806280830895E4
:100B3000CF93DF93EC018881882331F021960E94C6
:100B4000830589918111FBCFDF91CF910895A0E1B9
:100B5000B0E0EDEAF5E00C9439097C011B016A0173
:100B6000FC0117821682838181FF44C39E012F5F9F
:100B70003F4F3901F7019381F10193FD859193FF77
:100B800081911F01882309F431C3853239F493FD23
:100B9000859193FF81911F01853239F4B70190E06F
:100BA0000E94BB0A56016501E5CF10E0512C912C43
:100BB000FFE1F915D8F08B3279F038F4803279F012
:100BC0008332A1F4F92DF0612EC08D3261F08033B3
:100BD00069F4292D21602DC0392D3260932E892D85
:100BE0008460982E2AC0E92DE86015C097FC2DC0BE
:100BF00020ED280F2A3088F496FE06C03AE0139FB5
:100C0000200D1124122F19C08AE0589E200D1124A6
:100C1000522EE92DE0629E2E10C08E3231F496FCE9
:100C2000E5C2F92DF0649F2E08C08C3621F4292DE1
:100C30002068922E02C0883641F4F10193FD85911F
:100C400093FF81911F018111B3CF9BEB980F9330DC
:100C500020F4992D9061805E07C09BE9980F933036
:100C600008F066C1992D9F7E96FF16E09F73992E1E
:100C7000853619F49064992E08C0863621F4392FF0
:100C80003068932E02C01111115097FE07C01C331B
:100C900050F444244394410E27E00BC0183038F040
:100CA00027E017E005C027E09CE3492E02C0212F72
:100CB000412C560184E0A80EB11CF60160817181BF
:100CC00082819381042DA3010E948E096C01F98118
:100CD000FC87F0FF02C0F3FF06C091FC06C092FE45
:100CE00006C000E205C00DE203C00BE201C000E057
:100CF0008C858C7019F001115AC29BC297FE10C0EE
:100D00004C0CFC85F4FF04C08A81813309F44A94B9
:100D1000141474F528E0241578F588E0482E2CC0CA
:100D200096FC2AC0812F90E08C159D059CF03CEF2D
:100D3000C3163FEFD30674F0892D8068982E0AC041
:100D4000E2E0F0E0EC0FFD1FE10FF11D8081803348
:100D500019F411501111F4CF97FE0EC0442443949E
:100D6000410E812F90E0C816D9062CF41C1904C03E
:100D70004424439401C010E097FE06C01C141D04D7
:100D800034F4C601019605C085E090E002C081E020
:100D900090E001110196112331F0212F30E02F5FF7
:100DA0003F4F820F931F252D30E08217930714F4D5
:100DB000581A01C0512C892D897049F4552039F0F9
:100DC000B70180E290E00E94BB0A5A94F7CF00235B
:100DD00029F0B701802F90E00E94BB0A93FC09C064
:100DE000552039F0B70180E390E00E94BB0A5A9485
:100DF000F7CF97FE4CC04601D7FE02C0812C912C44
:100E0000C60188199909F301E80FF91FFE87ED87DC
:100E1000960124193109388B2F87012F10E0119585
:100E2000019511093FEF8316930629F4B7018EE26D
:100E300090E00E94BB0AC814D9044CF08F859889B1
:100E40008815990524F4ED85FE85818101C080E334
:100E5000F1E08F1A91082D853E852F5F3F4F3E8729
:100E60002D87801691062CF0B70190E00E94BB0AF6
:100E7000D9CFC814D90441F49A81963320F495331C
:100E800019F43C8534FF81E3B70190E04EC08A81BC
:100E9000813319F09C859F7E9C87B70190E00E946A
:100EA000BB0A111105C094FC18C085E690E017C07C
:100EB000B7018EE290E00E94BB0A1E5F82E001E073
:100EC000080FF301E80FF11D8081B70190E00E9447
:100ED000BB0A802F0113F3CFE6CF85E490E0B70182
:100EE0000E94BB0AD7FC06C0C114D10441F4EC85B2
:100EF000E4FF05C0D194C194D1088DE201C08BE21A
:100F0000B70190E00E94BB0A80E32AE0C216D10438
:100F10002CF08F5FFAE0CF1AD108F7CFB70190E03D
:100F20000E94BB0AB701C601C0960E94BB0A54C109
:100F3000833631F0833779F0833509F056C020C00D
:100F4000560132E0A30EB11CF6018081898301E0D5
:100F500010E0630112C05601F2E0AF0EB11CF601C1
:100F6000C080D18096FE03C0612F70E002C06FEF99
:100F70007FEFC6010E94830A8C01F92DFF7714C010
:100F8000560122E0A20EB11CF601C080D18096FE6F
:100F900003C0612F70E002C06FEF7FEFC6010E94B7
:100FA000660A8C01F92DF0689F2EF3FD1AC0852D7D
:100FB00090E008171907A8F4B70180E290E00E94BA
:100FC000BB0A5A94F4CFF60197FC859197FE819164
:100FD0006F01B70190E00E94BB0A51105A94015072
:100FE00011090115110579F7F7C0843611F089361A
:100FF00061F5560197FE09C024E0A20EB11CF6016E
:1010000060817181828193810AC0F2E0AF0EB11CD0
:10101000F60160817181072E000C880B990BF92D68
:10102000FF769F2E97FF09C09095809570956195EA
:101030007F4F8F4F9F4FF0689F2E2AE030E0A30133
:101040000E94F70AC82EC6183FC0092D853721F423
:101050000F7E2AE030E01DC0097F8F3691F018F432
:10106000883559F0C3C0803719F0883711F0BEC0F9
:10107000006104FF09C0046007C094FE08C0066058
:1010800006C028E030E005C020E130E002C020E1E9
:1010900032E0560107FF09C084E0A80EB11CF6013A
:1010A000608171818281938108C0F2E0AF0EB11C32
:1010B000F6016081718180E090E0A3010E94F70A4F
:1010C000C82EC6180F77902E96FE0BC0092D0E7FE6
:1010D000C11650F494FE0AC092FC08C0092D0E7E81
:1010E00005C0DC2C092D03C0DC2C01C0D12E04FF6F
:1010F0000DC0FE01EC0DF11D8081803311F4097EDD
:1011000009C002FF06C0D394D39404C0802F867810
:1011100009F0D39403FD11C000FF06C01C2DD514A7
:1011200080F4150D1D190DC0D51458F4B70180E2D7
:1011300090E00E94BB0AD394F7CFD51410F45D1849
:1011400001C0512C04FF10C0B70180E390E00E9461
:10115000BB0A02FF17C001FD03C088E790E002C090
:1011600088E590E0B7010CC0802F867859F001FF28
:1011700002C08BE201C080E207FD8DE2B70190E082
:101180000E94BB0AC11638F4B70180E390E00E94C8
:10119000BB0A1150F7CFCA94F301EC0DF11D808109
:1011A000B70190E00E94BB0AC110F5CF15C0F4E072
:1011B000F51560F584E0581A93FE1FC0011127C091
:1011C0002C8523FF2AC00EED10E0392D3071932EAF
:1011D000F8018491811124C0552009F4E4CCB701B1
:1011E00080E290E00E94BB0A5A94F6CFF701868114
:1011F000978126C08FEF9FEF23C0B70180E290E078
:101200000E94BB0A5A945110F8CFD8CF512CB70185
:10121000802F90E00E94BB0AD3CF02EE10E0D5CF22
:1012200091108052B70190E00E94BB0A0F5F1F4FE0
:10123000CFCF23E0251510F483E0BDCF512CC0CFD4
:101240006096E2E10C945509EE0FFF1F0590F491B2
:10125000E02D0994A29FB001B39FC001A39F700D20
:10126000811D1124911DB29F700D811D1124911DAE
:1012700008952F923F924F925F926F927F928F923A
:101280009F92AF92BF92CF92DF92EF92FF920F9315
:101290001F93CF93DF93CDB7DEB7CA1BDB0B0FB61F
:1012A000F894DEBF0FBECDBF09942A8839884888DC
:1012B0005F846E847D848C849B84AA84B984C88472
:1012C000DF80EE80FD800C811B81AA81B981CE0F69
:1012D000D11D0FB6F894DEBF0FBECDBFED0108954E
:1012E000FC0188279927E89421912032E9F32930DD
:1012F00010F02E30C8F32B3241F02D3239F46894BF
:1013000004C00E94990A820F911D219120532A3016
:10131000C0F31EF4909581959F4F0895283008F0F2
:1013200027E03327DA01990F311D87FD9160009680
:101330006105710539F432602E5F3D9330E32A95E3
:10134000E1F708959F3F30F080387105610509F09D
:101350003C5F3C5F3D93913008F08068911DDF93C6
:10136000CF931F930F93FF92EF92192F987F96952B
:10137000E92F96959695E90FFF27E05CFE4F992798
:101380003327EE24FF24A701E70105900894079472
:1013900028F4360FE71EF81E491F511D660F771FF0
:1013A000881F991F0694A1F70590079428F4E70E6B
:1013B000F81E491F561FC11D770F881F991F661FF2
:1013C0000694A1F70590079428F4F80E491F561FBC
:1013D000C71FD11D880F991F661F771F0694A1F79D
:1013E0000590079420F4490F561FC71FD81F990F67
:1013F000661F771F881F0694A9F7849110951770B0
:1014000041F0D695C79557954795F794E7941A9567
:10141000C1F7E6EEF0E0689415901591359165916D
:10142000959105907FE27395E118F10A430B560BF5
:10143000C90BD009C0F7E10CF11E431F561FC91F8D
:10144000D01D7EF4703311F48A95E6CFE8940150F4
:1014500030F0080F0AF40027021708F4202F239514
:10146000022F7A3328F079E37D932A95E9F710C0AB
:101470007D932A9589F606949795679537951795E4
:101480001794E118F10A430B560BC90BD00998F0D9
:1014900023957E9173957A3308F070E37C93201343
:1014A000B8F77E9170617D9330F0839571E37D9301
:1014B00070E32A95E1F71124EF90FF900F911F91AF
:1014C000CF91DF91992787FD90950895FC010590B4
:1014D000615070400110D8F7809590958E0F9F1F36
:1014E0000895FC018191861721F08823D9F7992767
:1014F00008953197CF010895FB01DC0101900D9211
:101500000020E1F70895FC01615070400190011046
:10151000D8F7809590958E0F9F1F0895BB274A306E
:1015200031F4992322F4BDE2909581959F4F0C945C
:10153000A20A7AE0979F902D879F802D910D11240C
:101540000895BB27FB015527AA27880F991FAA1FBB
:10155000A41710F0A41B83955051B9F7A05DAA33CE
:1015600008F0A95DA193009779F7B111B193119299
:10157000CB010C94550B0F931F93CF93DF93FB017B
:10158000238121FD03C08FEF9FEF2CC022FF16C0E7
:1015900046815781248135814217530744F4A08145
:1015A000B1819D012F5F3F4F318320838C93268132
:1015B00037812F5F3F4F3783268314C08B01EC01A7
:1015C000FB010084F185E02D0995892BE1F6D80116
:1015D00016968D919C911797019617969C938E93D2
:1015E0001697CE01DF91CF911F910F910895FA01C7
:1015F000AA27283051F1203181F1E8946F936E7F52
:101600006E5F7F4F8F4F9F4FAF4FB1E03ED0B4E042
:101610003CD0670F781F891F9A1FA11D680F791F83
:101620008A1F911DA11D6A0F711D811D911DA11D94
:1016300020D009F468943F912AE0269F11243019A4
:10164000305D3193DEF6CF010895462F4770405D3F
:101650004193B3E00FD0C9F7F6CF462F4F70405DEE
:101660004A3318F0495D31FD4052419302D0A9F749
:10167000EACFB4E0A6959795879577956795BA9543
:10168000C9F700976105710508959B01AC010A2E09
:1016900006945795479537952795BA95C9F7620FE0
:1016A000731F841F951FA01D0895DC01FC01672F87
:1016B00071917723E1F7329704C07C916D93708329
:0E16C0006291AE17BF07C8F30895F894FFCFEC
:1016CE005370656564203D20005370656564206E1F
:1016DE006F7420696E2072616E6765206F662030B0
:1016EE002D3235350A00652076616C7565203D20FA
:1016FE0000536574706F696E74203D2000536574DD
:10170E00706F696E74206E6F7420696E2072616ED8
:10171E00676520302D3235350A00536574706F6958
:10172E006E74206E6F7420696E2072616E67652014
:10173E00746F6F206269670A00536574706F696E0B
:10174E0074206E6F7420696E2072616E67652C2036
:10175E00746F6F20736D616C6C0A005265736574E3
:10176E000053544F502100446F696E6720617574A9
:10177E006F206D6F76656D656E740A004D756C74B5
:10178E0069706C79206D6F76656D656E74206E6F05
:10179E007420696E2072616E67650A004E6F207646
:1017AE00616C696420636F6D6D616E643A00202810
:1017BE0000290A005265636569766564203D3C0028
:1017CE003E0A00437572723D0020536574703D00F1
:1017DE0020416E676C3D00204572723D00205370B3
:1017EE00643D00204469723D0050554C4C005245FA
:1017FE004C454153450020535441543D00574F52E0
:10180E004B494E472055500A00574F524B494E47B1
:10181E0020444F574E0A00444F4E450A0053544F32
:10182E00500A0043555252204F56460A006E302E33
:10183E0076616C3D00FFFFFF006E312E76616C3DD0
:10184E000074332E7478743D225452454B2E2E2242
:10185E000074332E706963633D300074332E7478D8
:10186E00743D224F4E545350414E2E2E220074334F
:10187E002E7478743D224B4C414152220074332E0B
:10188E00706963633D310074332E7478743D225356
:10189E00544F502C205245534554220074332E7011
:1018AE006963633D320074332E7478743D22535451
:0C18BE004F502C204B5241434854220054
:00000001FF
